{
  "abi": [
    {
      "inputs": [
        {
          "internalType": "string",
          "name": "_setBaseUri",
          "type": "string"
        }
      ],
      "stateMutability": "nonpayable",
      "type": "constructor"
    },
    {
      "anonymous": false,
      "inputs": [
        {
          "indexed": true,
          "internalType": "address",
          "name": "owner",
          "type": "address"
        },
        {
          "indexed": true,
          "internalType": "address",
          "name": "approved",
          "type": "address"
        },
        {
          "indexed": true,
          "internalType": "uint256",
          "name": "tokenId",
          "type": "uint256"
        }
      ],
      "name": "Approval",
      "type": "event"
    },
    {
      "anonymous": false,
      "inputs": [
        {
          "indexed": true,
          "internalType": "address",
          "name": "owner",
          "type": "address"
        },
        {
          "indexed": true,
          "internalType": "address",
          "name": "operator",
          "type": "address"
        },
        {
          "indexed": false,
          "internalType": "bool",
          "name": "approved",
          "type": "bool"
        }
      ],
      "name": "ApprovalForAll",
      "type": "event"
    },
    {
      "anonymous": false,
      "inputs": [
        {
          "indexed": true,
          "internalType": "address",
          "name": "previousOwner",
          "type": "address"
        },
        {
          "indexed": true,
          "internalType": "address",
          "name": "newOwner",
          "type": "address"
        }
      ],
      "name": "OwnershipTransferred",
      "type": "event"
    },
    {
      "anonymous": false,
      "inputs": [
        {
          "indexed": true,
          "internalType": "address",
          "name": "from",
          "type": "address"
        },
        {
          "indexed": true,
          "internalType": "address",
          "name": "to",
          "type": "address"
        },
        {
          "indexed": true,
          "internalType": "uint256",
          "name": "tokenId",
          "type": "uint256"
        }
      ],
      "name": "Transfer",
      "type": "event"
    },
    {
      "inputs": [],
      "name": "MAX_ID",
      "outputs": [
        {
          "internalType": "uint256",
          "name": "",
          "type": "uint256"
        }
      ],
      "stateMutability": "view",
      "type": "function"
    },
    {
      "inputs": [
        {
          "internalType": "address",
          "name": "to",
          "type": "address"
        },
        {
          "internalType": "uint256",
          "name": "tokenId",
          "type": "uint256"
        }
      ],
      "name": "approve",
      "outputs": [],
      "stateMutability": "nonpayable",
      "type": "function"
    },
    {
      "inputs": [
        {
          "internalType": "address",
          "name": "owner",
          "type": "address"
        }
      ],
      "name": "balanceOf",
      "outputs": [
        {
          "internalType": "uint256",
          "name": "",
          "type": "uint256"
        }
      ],
      "stateMutability": "view",
      "type": "function"
    },
    {
      "inputs": [],
      "name": "baseUri",
      "outputs": [
        {
          "internalType": "string",
          "name": "",
          "type": "string"
        }
      ],
      "stateMutability": "view",
      "type": "function"
    },
    {
      "inputs": [
        {
          "internalType": "uint256",
          "name": "id",
          "type": "uint256"
        }
      ],
      "name": "burn",
      "outputs": [],
      "stateMutability": "nonpayable",
      "type": "function"
    },
    {
      "inputs": [],
      "name": "distributor",
      "outputs": [
        {
          "internalType": "address",
          "name": "",
          "type": "address"
        }
      ],
      "stateMutability": "view",
      "type": "function"
    },
    {
      "inputs": [
        {
          "internalType": "uint256",
          "name": "tokenId",
          "type": "uint256"
        }
      ],
      "name": "getApproved",
      "outputs": [
        {
          "internalType": "address",
          "name": "",
          "type": "address"
        }
      ],
      "stateMutability": "view",
      "type": "function"
    },
    {
      "inputs": [
        {
          "internalType": "address",
          "name": "owner",
          "type": "address"
        },
        {
          "internalType": "address",
          "name": "operator",
          "type": "address"
        }
      ],
      "name": "isApprovedForAll",
      "outputs": [
        {
          "internalType": "bool",
          "name": "",
          "type": "bool"
        }
      ],
      "stateMutability": "view",
      "type": "function"
    },
    {
      "inputs": [
        {
          "internalType": "address",
          "name": "to",
          "type": "address"
        },
        {
          "internalType": "uint256",
          "name": "id",
          "type": "uint256"
        }
      ],
      "name": "mintFromDistributor",
      "outputs": [],
      "stateMutability": "nonpayable",
      "type": "function"
    },
    {
      "inputs": [],
      "name": "name",
      "outputs": [
        {
          "internalType": "string",
          "name": "",
          "type": "string"
        }
      ],
      "stateMutability": "view",
      "type": "function"
    },
    {
      "inputs": [],
      "name": "owner",
      "outputs": [
        {
          "internalType": "address",
          "name": "",
          "type": "address"
        }
      ],
      "stateMutability": "view",
      "type": "function"
    },
    {
      "inputs": [
        {
          "internalType": "uint256",
          "name": "tokenId",
          "type": "uint256"
        }
      ],
      "name": "ownerOf",
      "outputs": [
        {
          "internalType": "address",
          "name": "",
          "type": "address"
        }
      ],
      "stateMutability": "view",
      "type": "function"
    },
    {
      "inputs": [],
      "name": "renounceOwnership",
      "outputs": [],
      "stateMutability": "nonpayable",
      "type": "function"
    },
    {
      "inputs": [
        {
          "internalType": "uint256",
          "name": "_tokenId",
          "type": "uint256"
        },
        {
          "internalType": "uint256",
          "name": "_salePrice",
          "type": "uint256"
        }
      ],
      "name": "royaltyInfo",
      "outputs": [
        {
          "internalType": "address",
          "name": "",
          "type": "address"
        },
        {
          "internalType": "uint256",
          "name": "",
          "type": "uint256"
        }
      ],
      "stateMutability": "view",
      "type": "function"
    },
    {
      "inputs": [
        {
          "internalType": "address",
          "name": "from",
          "type": "address"
        },
        {
          "internalType": "address",
          "name": "to",
          "type": "address"
        },
        {
          "internalType": "uint256",
          "name": "tokenId",
          "type": "uint256"
        }
      ],
      "name": "safeTransferFrom",
      "outputs": [],
      "stateMutability": "nonpayable",
      "type": "function"
    },
    {
      "inputs": [
        {
          "internalType": "address",
          "name": "from",
          "type": "address"
        },
        {
          "internalType": "address",
          "name": "to",
          "type": "address"
        },
        {
          "internalType": "uint256",
          "name": "tokenId",
          "type": "uint256"
        },
        {
          "internalType": "bytes",
          "name": "data",
          "type": "bytes"
        }
      ],
      "name": "safeTransferFrom",
      "outputs": [],
      "stateMutability": "nonpayable",
      "type": "function"
    },
    {
      "inputs": [
        {
          "internalType": "address",
          "name": "operator",
          "type": "address"
        },
        {
          "internalType": "bool",
          "name": "approved",
          "type": "bool"
        }
      ],
      "name": "setApprovalForAll",
      "outputs": [],
      "stateMutability": "nonpayable",
      "type": "function"
    },
    {
      "inputs": [
        {
          "internalType": "string",
          "name": "newBaseURI",
          "type": "string"
        }
      ],
      "name": "setBaseURI",
      "outputs": [],
      "stateMutability": "nonpayable",
      "type": "function"
    },
    {
      "inputs": [
        {
          "internalType": "address",
          "name": "newDistributor",
          "type": "address"
        }
      ],
      "name": "setDistributor",
      "outputs": [],
      "stateMutability": "nonpayable",
      "type": "function"
    },
    {
      "inputs": [
        {
          "internalType": "bytes4",
          "name": "interfaceId",
          "type": "bytes4"
        }
      ],
      "name": "supportsInterface",
      "outputs": [
        {
          "internalType": "bool",
          "name": "",
          "type": "bool"
        }
      ],
      "stateMutability": "view",
      "type": "function"
    },
    {
      "inputs": [],
      "name": "symbol",
      "outputs": [
        {
          "internalType": "string",
          "name": "",
          "type": "string"
        }
      ],
      "stateMutability": "view",
      "type": "function"
    },
    {
      "inputs": [
        {
          "internalType": "uint256",
          "name": "index",
          "type": "uint256"
        }
      ],
      "name": "tokenByIndex",
      "outputs": [
        {
          "internalType": "uint256",
          "name": "",
          "type": "uint256"
        }
      ],
      "stateMutability": "view",
      "type": "function"
    },
    {
      "inputs": [
        {
          "internalType": "address",
          "name": "owner",
          "type": "address"
        },
        {
          "internalType": "uint256",
          "name": "index",
          "type": "uint256"
        }
      ],
      "name": "tokenOfOwnerByIndex",
      "outputs": [
        {
          "internalType": "uint256",
          "name": "",
          "type": "uint256"
        }
      ],
      "stateMutability": "view",
      "type": "function"
    },
    {
      "inputs": [
        {
          "internalType": "uint256",
          "name": "tokenId",
          "type": "uint256"
        }
      ],
      "name": "tokenURI",
      "outputs": [
        {
          "internalType": "string",
          "name": "",
          "type": "string"
        }
      ],
      "stateMutability": "view",
      "type": "function"
    },
    {
      "inputs": [],
      "name": "totalSupply",
      "outputs": [
        {
          "internalType": "uint256",
          "name": "",
          "type": "uint256"
        }
      ],
      "stateMutability": "view",
      "type": "function"
    },
    {
      "inputs": [
        {
          "internalType": "address",
          "name": "from",
          "type": "address"
        },
        {
          "internalType": "address",
          "name": "to",
          "type": "address"
        },
        {
          "internalType": "uint256",
          "name": "tokenId",
          "type": "uint256"
        }
      ],
      "name": "transferFrom",
      "outputs": [],
      "stateMutability": "nonpayable",
      "type": "function"
    },
    {
      "inputs": [
        {
          "internalType": "address",
          "name": "newOwner",
          "type": "address"
        }
      ],
      "name": "transferOwnership",
      "outputs": [],
      "stateMutability": "nonpayable",
      "type": "function"
    },
    {
      "inputs": [
        {
          "internalType": "address",
          "name": "newghoulsMultiSig",
          "type": "address"
        },
        {
          "internalType": "uint96",
          "name": "newNumerator",
          "type": "uint96"
        }
      ],
      "name": "updateRoyalties",
      "outputs": [],
      "stateMutability": "nonpayable",
      "type": "function"
    }
  ],
  "bytecode": {
    "object": "0x6080604052600d80546001600160a01b031916734c9046aa11ed7a7d336ca6c6dcd148181c9304d31790553480156200003757600080fd5b506040516200269d3803806200269d8339810160408190526200005a916200016d565b6040518060400160405280600f81526020016e5448452d4c4f53542d47484f554c5360881b81525060405180610260016040528061024081526020016200245d61024091396000620000ad8382620002d1565b506001620000bc8282620002d1565b505050620000d9620000d36200010160201b60201c565b62000105565b600e620000e78282620002d1565b5050600f80546001600160a01b031916331790556200039d565b3390565b600c80546001600160a01b038381166001600160a01b0319831681179093556040519116919082907f8be0079c531659141344cd1fd0a4f28419497f9722a3daafe3b4186f6b6457e090600090a35050565b634e487b7160e01b600052604160045260246000fd5b600060208083850312156200018157600080fd5b82516001600160401b03808211156200019957600080fd5b818501915085601f830112620001ae57600080fd5b815181811115620001c357620001c362000157565b604051601f8201601f19908116603f01168101908382118183101715620001ee57620001ee62000157565b8160405282815288868487010111156200020757600080fd5b600093505b828410156200022b57848401860151818501870152928501926200020c565b600086848301015280965050505050505092915050565b600181811c908216806200025757607f821691505b6020821081036200027857634e487b7160e01b600052602260045260246000fd5b50919050565b601f821115620002cc57600081815260208120601f850160051c81016020861015620002a75750805b601f850160051c820191505b81811015620002c857828155600101620002b3565b5050505b505050565b81516001600160401b03811115620002ed57620002ed62000157565b6200030581620002fe845462000242565b846200027e565b602080601f8311600181146200033d5760008415620003245750858301515b600019600386901b1c1916600185901b178555620002c8565b600085815260208120601f198616915b828110156200036e578886015182559484019460019091019084016200034d565b50858210156200038d5787850151600019600388901b60f8161c191681555b5050505050600190811b01905550565b6120b080620003ad6000396000f3fe608060405234801561001057600080fd5b50600436106101c45760003560e01c80636352211e116100f9578063a22cb46511610097578063bfe1092811610071578063bfe10928146103b7578063c87b56dd146103ca578063e985e9c5146103dd578063f2fde38b1461041957600080fd5b8063a22cb4651461037e578063b22d3b3514610391578063b88d4fde146103a457600080fd5b806375619ab5116100d357806375619ab51461034a5780638da5cb5b1461035d57806395d89b411461036e5780639abc83201461037657600080fd5b80636352211e1461031c57806370a082311461032f578063715018a61461034257600080fd5b806323b872dd1161016657806342842e0e1161014057806342842e0e146102d057806342966c68146102e35780634f6ccce7146102f657806355f804b31461030957600080fd5b806323b872dd146102785780632a55205a1461028b5780632f745c59146102bd57600080fd5b8063095ea7b3116101a2578063095ea7b3146102315780631129368c1461024657806317bac0521461025957806318160ddd1461027057600080fd5b806301ffc9a7146101c957806306fdde03146101f1578063081812fc14610206575b600080fd5b6101dc6101d73660046119e7565b61042c565b60405190151581526020015b60405180910390f35b6101f9610472565b6040516101e89190611a54565b610219610214366004611a67565b610504565b6040516001600160a01b0390911681526020016101e8565b61024461023f366004611a9c565b61052b565b005b610244610254366004611ac6565b610645565b6102626101a481565b6040519081526020016101e8565b600854610262565b610244610286366004611b09565b61065b565b61029e610299366004611b45565b61068c565b604080516001600160a01b0390931683526020830191909152016101e8565b6102626102cb366004611a9c565b610738565b6102446102de366004611b09565b6107ce565b6102446102f1366004611a67565b6107e9565b610262610304366004611a67565b6107f5565b610244610317366004611bf3565b610888565b61021961032a366004611a67565b61089c565b61026261033d366004611c3c565b6108fc565b610244610982565b610244610358366004611c3c565b610996565b600c546001600160a01b0316610219565b6101f96109c0565b6101f96109cf565b61024461038c366004611c57565b610a5d565b61024461039f366004611a9c565b610a68565b6102446103b2366004611c88565b610b40565b600f54610219906001600160a01b031681565b6101f96103d8366004611a67565b610b78565b6101dc6103eb366004611d04565b6001600160a01b03918216600090815260056020908152604080832093909416825291909152205460ff1690565b610244610427366004611c3c565b610bdf565b60006001600160e01b0319821663780e9d6360e01b148061045d57506001600160e01b0319821663152a902d60e11b145b8061046c575061046c82610c55565b92915050565b60606000805461048190611d37565b80601f01602080910402602001604051908101604052809291908181526020018280546104ad90611d37565b80156104fa5780601f106104cf576101008083540402835291602001916104fa565b820191906000526020600020905b8154815290600101906020018083116104dd57829003601f168201915b5050505050905090565b600061050f82610c7a565b506000908152600460205260409020546001600160a01b031690565b60006105368261089c565b9050806001600160a01b0316836001600160a01b0316036105a85760405162461bcd60e51b815260206004820152602160248201527f4552433732313a20617070726f76616c20746f2063757272656e74206f776e656044820152603960f91b60648201526084015b60405180910390fd5b336001600160a01b03821614806105c457506105c481336103eb565b6106365760405162461bcd60e51b815260206004820152603d60248201527f4552433732313a20617070726f76652063616c6c6572206973206e6f7420746f60448201527f6b656e206f776e6572206f7220617070726f76656420666f7220616c6c000000606482015260840161059f565b6106408383610cd9565b505050565b61064d610d47565b6106578282610da1565b5050565b6106653382610e9e565b6106815760405162461bcd60e51b815260040161059f90611d71565b610640838383610f1d565b6000828152600b602090815260408083208151808301909252546001600160a01b038116808352600160a01b9091046001600160601b0316928201929092528291610701575060408051808201909152600a546001600160a01b0381168252600160a01b90046001600160601b031660208201525b602081015160009061271090610720906001600160601b031687611dd4565b61072a9190611deb565b915196919550909350505050565b6000610743836108fc565b82106107a55760405162461bcd60e51b815260206004820152602b60248201527f455243373231456e756d657261626c653a206f776e657220696e646578206f7560448201526a74206f6620626f756e647360a81b606482015260840161059f565b506001600160a01b03919091166000908152600660209081526040808320938352929052205490565b61064083838360405180602001604052806000815250610b40565b6107f28161108e565b50565b600061080060085490565b82106108635760405162461bcd60e51b815260206004820152602c60248201527f455243373231456e756d657261626c653a20676c6f62616c20696e646578206f60448201526b7574206f6620626f756e647360a01b606482015260840161059f565b6008828154811061087657610876611e0d565b90600052602060002001549050919050565b610890610d47565b600e6106578282611e71565b6000818152600260205260408120546001600160a01b03168061046c5760405162461bcd60e51b8152602060048201526018602482015277115490cdcc8c4e881a5b9d985b1a59081d1bdad95b88125160421b604482015260640161059f565b60006001600160a01b0382166109665760405162461bcd60e51b815260206004820152602960248201527f4552433732313a2061646472657373207a65726f206973206e6f7420612076616044820152683634b21037bbb732b960b91b606482015260840161059f565b506001600160a01b031660009081526003602052604090205490565b61098a610d47565b6109946000611131565b565b61099e610d47565b600f80546001600160a01b0319166001600160a01b0392909216919091179055565b60606001805461048190611d37565b600e80546109dc90611d37565b80601f0160208091040260200160405190810160405280929190818152602001828054610a0890611d37565b8015610a555780601f10610a2a57610100808354040283529160200191610a55565b820191906000526020600020905b815481529060010190602001808311610a3857829003601f168201915b505050505081565b610657338383611183565b600f546001600160a01b03163314610ad95760405162461bcd60e51b815260206004820152602e60248201527f5448452d4c4f53542d47484f554c533a2063616c6c6572206973206e6f74207460448201526d3432903234b9ba3934b13aba37b960911b606482015260840161059f565b6101a48111158015610aea57508015155b610b365760405162461bcd60e51b815260206004820152601b60248201527f5448452d4c4f53542d47484f554c533a20696e76616c69642049440000000000604482015260640161059f565b6106578282611251565b610b4a3383610e9e565b610b665760405162461bcd60e51b815260040161059f90611d71565b610b72848484846113ea565b50505050565b6060610b8382610c7a565b6000610b8d61141d565b90506000815111610bad5760405180602001604052806000815250610bd8565b80610bb78461142c565b604051602001610bc8929190611f31565b6040516020818303038152906040525b9392505050565b610be7610d47565b6001600160a01b038116610c4c5760405162461bcd60e51b815260206004820152602660248201527f4f776e61626c653a206e6577206f776e657220697320746865207a65726f206160448201526564647265737360d01b606482015260840161059f565b6107f281611131565b60006001600160e01b0319821663152a902d60e11b148061046c575061046c826114bf565b6000818152600260205260409020546001600160a01b03166107f25760405162461bcd60e51b8152602060048201526018602482015277115490cdcc8c4e881a5b9d985b1a59081d1bdad95b88125160421b604482015260640161059f565b600081815260046020526040902080546001600160a01b0319166001600160a01b0384169081179091558190610d0e8261089c565b6001600160a01b03167f8c5be1e5ebec7d5bd14f71427d1e84f3dd0314c0f7b2291e5b200ac8c7c3b92560405160405180910390a45050565b600c546001600160a01b031633146109945760405162461bcd60e51b815260206004820181905260248201527f4f776e61626c653a2063616c6c6572206973206e6f7420746865206f776e6572604482015260640161059f565b6127106001600160601b0382161115610e0f5760405162461bcd60e51b815260206004820152602a60248201527f455243323938313a20726f79616c7479206665652077696c6c206578636565646044820152692073616c65507269636560b01b606482015260840161059f565b6001600160a01b038216610e655760405162461bcd60e51b815260206004820152601960248201527f455243323938313a20696e76616c696420726563656976657200000000000000604482015260640161059f565b604080518082019091526001600160a01b039092168083526001600160601b039091166020909201829052600160a01b90910217600a55565b600080610eaa8361089c565b9050806001600160a01b0316846001600160a01b03161480610ef157506001600160a01b0380821660009081526005602090815260408083209388168352929052205460ff165b80610f155750836001600160a01b0316610f0a84610504565b6001600160a01b0316145b949350505050565b826001600160a01b0316610f308261089c565b6001600160a01b031614610f565760405162461bcd60e51b815260040161059f90611f60565b6001600160a01b038216610fb85760405162461bcd60e51b8152602060048201526024808201527f4552433732313a207472616e7366657220746f20746865207a65726f206164646044820152637265737360e01b606482015260840161059f565b610fc583838360016114e4565b826001600160a01b0316610fd88261089c565b6001600160a01b031614610ffe5760405162461bcd60e51b815260040161059f90611f60565b600081815260046020908152604080832080546001600160a01b03199081169091556001600160a01b0387811680865260038552838620805460001901905590871680865283862080546001019055868652600290945282852080549092168417909155905184937fddf252ad1be2c89b69c2b068fc378daa952ba7f163c4a11628f55a4df523b3ef91a4505050565b60006110998261089c565b90506110a98160008460016114e4565b6110b28261089c565b600083815260046020908152604080832080546001600160a01b03199081169091556001600160a01b0385168085526003845282852080546000190190558785526002909352818420805490911690555192935084927fddf252ad1be2c89b69c2b068fc378daa952ba7f163c4a11628f55a4df523b3ef908390a45050565b600c80546001600160a01b038381166001600160a01b0319831681179093556040519116919082907f8be0079c531659141344cd1fd0a4f28419497f9722a3daafe3b4186f6b6457e090600090a35050565b816001600160a01b0316836001600160a01b0316036111e45760405162461bcd60e51b815260206004820152601960248201527f4552433732313a20617070726f766520746f2063616c6c657200000000000000604482015260640161059f565b6001600160a01b03838116600081815260056020908152604080832094871680845294825291829020805460ff191686151590811790915591519182527f17307eab39ab6107e8899845ad3d59bd9653f200f220920489ca2b5937696c31910160405180910390a3505050565b6001600160a01b0382166112a75760405162461bcd60e51b815260206004820181905260248201527f4552433732313a206d696e7420746f20746865207a65726f2061646472657373604482015260640161059f565b6000818152600260205260409020546001600160a01b03161561130c5760405162461bcd60e51b815260206004820152601c60248201527f4552433732313a20746f6b656e20616c7265616479206d696e74656400000000604482015260640161059f565b61131a6000838360016114e4565b6000818152600260205260409020546001600160a01b03161561137f5760405162461bcd60e51b815260206004820152601c60248201527f4552433732313a20746f6b656e20616c7265616479206d696e74656400000000604482015260640161059f565b6001600160a01b038216600081815260036020908152604080832080546001019055848352600290915280822080546001600160a01b0319168417905551839291907fddf252ad1be2c89b69c2b068fc378daa952ba7f163c4a11628f55a4df523b3ef908290a45050565b6113f5848484610f1d565b61140184848484611618565b610b725760405162461bcd60e51b815260040161059f90611fa5565b6060600e805461048190611d37565b6060600061143983611719565b600101905060008167ffffffffffffffff81111561145957611459611b67565b6040519080825280601f01601f191660200182016040528015611483576020820181803683370190505b5090508181016020015b600019016f181899199a1a9b1b9c1cb0b131b232b360811b600a86061a8153600a850494508461148d57509392505050565b60006001600160e01b0319821663780e9d6360e01b148061046c575061046c826117f1565b60018111156115535760405162461bcd60e51b815260206004820152603560248201527f455243373231456e756d657261626c653a20636f6e7365637574697665207472604482015274185b9cd9995c9cc81b9bdd081cdd5c1c1bdc9d1959605a1b606482015260840161059f565b816001600160a01b0385166115af576115aa81600880546000838152600960205260408120829055600182018355919091527ff3f7a9fe364faab93b216da50a3214154f22a0a2b415b23a84c8169e8b636ee30155565b6115d2565b836001600160a01b0316856001600160a01b0316146115d2576115d28582611841565b6001600160a01b0384166115ee576115e9816118de565b611611565b846001600160a01b0316846001600160a01b03161461161157611611848261198d565b5050505050565b60006001600160a01b0384163b1561170e57604051630a85bd0160e11b81526001600160a01b0385169063150b7a029061165c903390899088908890600401611ff7565b6020604051808303816000875af1925050508015611697575060408051601f3d908101601f1916820190925261169491810190612034565b60015b6116f4573d8080156116c5576040519150601f19603f3d011682016040523d82523d6000602084013e6116ca565b606091505b5080516000036116ec5760405162461bcd60e51b815260040161059f90611fa5565b805181602001fd5b6001600160e01b031916630a85bd0160e11b149050610f15565b506001949350505050565b60008072184f03e93ff9f4daa797ed6e38ed64bf6a1f0160401b83106117585772184f03e93ff9f4daa797ed6e38ed64bf6a1f0160401b830492506040015b6d04ee2d6d415b85acef81000000008310611784576d04ee2d6d415b85acef8100000000830492506020015b662386f26fc1000083106117a257662386f26fc10000830492506010015b6305f5e10083106117ba576305f5e100830492506008015b61271083106117ce57612710830492506004015b606483106117e0576064830492506002015b600a831061046c5760010192915050565b60006001600160e01b031982166380ac58cd60e01b148061182257506001600160e01b03198216635b5e139f60e01b145b8061046c57506301ffc9a760e01b6001600160e01b031983161461046c565b6000600161184e846108fc565b6118589190612051565b6000838152600760205260409020549091508082146118ab576001600160a01b03841660009081526006602090815260408083208584528252808320548484528184208190558352600790915290208190555b5060009182526007602090815260408084208490556001600160a01b039094168352600681528383209183525290812055565b6008546000906118f090600190612051565b6000838152600960205260408120546008805493945090928490811061191857611918611e0d565b90600052602060002001549050806008838154811061193957611939611e0d565b600091825260208083209091019290925582815260099091526040808220849055858252812055600880548061197157611971612064565b6001900381819060005260206000200160009055905550505050565b6000611998836108fc565b6001600160a01b039093166000908152600660209081526040808320868452825280832085905593825260079052919091209190915550565b6001600160e01b0319811681146107f257600080fd5b6000602082840312156119f957600080fd5b8135610bd8816119d1565b60005b83811015611a1f578181015183820152602001611a07565b50506000910152565b60008151808452611a40816020860160208601611a04565b601f01601f19169290920160200192915050565b602081526000610bd86020830184611a28565b600060208284031215611a7957600080fd5b5035919050565b80356001600160a01b0381168114611a9757600080fd5b919050565b60008060408385031215611aaf57600080fd5b611ab883611a80565b946020939093013593505050565b60008060408385031215611ad957600080fd5b611ae283611a80565b915060208301356001600160601b0381168114611afe57600080fd5b809150509250929050565b600080600060608486031215611b1e57600080fd5b611b2784611a80565b9250611b3560208501611a80565b9150604084013590509250925092565b60008060408385031215611b5857600080fd5b50508035926020909101359150565b634e487b7160e01b600052604160045260246000fd5b600067ffffffffffffffff80841115611b9857611b98611b67565b604051601f8501601f19908116603f01168101908282118183101715611bc057611bc0611b67565b81604052809350858152868686011115611bd957600080fd5b858560208301376000602087830101525050509392505050565b600060208284031215611c0557600080fd5b813567ffffffffffffffff811115611c1c57600080fd5b8201601f81018413611c2d57600080fd5b610f1584823560208401611b7d565b600060208284031215611c4e57600080fd5b610bd882611a80565b60008060408385031215611c6a57600080fd5b611c7383611a80565b915060208301358015158114611afe57600080fd5b60008060008060808587031215611c9e57600080fd5b611ca785611a80565b9350611cb560208601611a80565b925060408501359150606085013567ffffffffffffffff811115611cd857600080fd5b8501601f81018713611ce957600080fd5b611cf887823560208401611b7d565b91505092959194509250565b60008060408385031215611d1757600080fd5b611d2083611a80565b9150611d2e60208401611a80565b90509250929050565b600181811c90821680611d4b57607f821691505b602082108103611d6b57634e487b7160e01b600052602260045260246000fd5b50919050565b6020808252602d908201527f4552433732313a2063616c6c6572206973206e6f7420746f6b656e206f776e6560408201526c1c881bdc88185c1c1c9bdd9959609a1b606082015260800190565b634e487b7160e01b600052601160045260246000fd5b808202811582820484141761046c5761046c611dbe565b600082611e0857634e487b7160e01b600052601260045260246000fd5b500490565b634e487b7160e01b600052603260045260246000fd5b601f82111561064057600081815260208120601f850160051c81016020861015611e4a5750805b601f850160051c820191505b81811015611e6957828155600101611e56565b505050505050565b815167ffffffffffffffff811115611e8b57611e8b611b67565b611e9f81611e998454611d37565b84611e23565b602080601f831160018114611ed45760008415611ebc5750858301515b600019600386901b1c1916600185901b178555611e69565b600085815260208120601f198616915b82811015611f0357888601518255948401946001909101908401611ee4565b5085821015611f215787850151600019600388901b60f8161c191681555b5050505050600190811b01905550565b60008351611f43818460208801611a04565b835190830190611f57818360208801611a04565b01949350505050565b60208082526025908201527f4552433732313a207472616e736665722066726f6d20696e636f72726563742060408201526437bbb732b960d91b606082015260800190565b60208082526032908201527f4552433732313a207472616e7366657220746f206e6f6e20455243373231526560408201527131b2b4bb32b91034b6b83632b6b2b73a32b960711b606082015260800190565b6001600160a01b038581168252841660208201526040810183905260806060820181905260009061202a90830184611a28565b9695505050505050565b60006020828403121561204657600080fd5b8151610bd8816119d1565b8181038181111561046c5761046c611dbe565b634e487b7160e01b600052603160045260246000fdfea264697066735822122081b78c34ad97f09476f3ba8f2ed2eb0aef9bc7eb6991c5f3f7cddd446cb8022964736f6c6343000811003347ccb4cc91cc80cd97cc94cd92cd86cda0ccbecc85cd82cc84ccbfcc80cd91cd84cc94cd83ccbdcd90cd8acc90cc95cc83cc89cc90cd97cc8fcc8fcc9acd9dcc91cd98cc92cd9dcc8ccc80cd8ccc91cd84cd83cd9dcc86cd81cd82cda0cc89cc95cc80cd80cc90cd97cd9bcd90cc98ccbacd94ccbacc98cca2cc99ccbbcca2cca1cc9fcd87cd94cd96ccb9cca0cd94cc9fcc97cd8dcca3cca8ccb1ccbaccb1ccadcca6cd95cc9cccb2ccb0cd85cd94cca2cd8ecc9fccb3cc99cca9cca4ccbbccb9cc9eccaecc9fcd88ccacccafccbaccaacd8dcd93cca8ccaccc97ccbbcd9acd8e48ccb8ccbfcd90cd8acc94cc8dcd81ccadcca3cd89cca7cd8eccaccd8eccbcccaacd8dccaacc9cccbacd85cc9c4cccb8cd9bcc91cc89cd80cc94cc8fcd80cc87cd86cd8ccc92cd84cc93cd9dcd92cc81cd84cc88cd84cd90cd8ccd91cd82cc94cc85ccbdcd91cd92cc9acc9bcc80cc9fcc98cca7cd99cd88cd99cc99ccbacca0cd8dccaeccabccaccc97ccb1ccb3ccacccb1ccaccd9ccc98ccaacc98cd87cd93cca1cd88cca0ccbacc9eccafcd96cca1cc98ccb1cd89ccaccc9fccaccc97cc9dccb2cd8e53ccb6cd9dcc8ccc83cd97cd90cc84cd86cc88cc81cd90cc81cd86cd9bcc8fcd9dcd9dcc92cc8ccc83cd90cc95cda0cd8ccda0cc95cc85cc8bccbdcc91cc9acc86cd8acd9bcc84cd92cc94cc8bcc88cd86cc9bcda0cd90cc82cd84cd84cc8ccc9acc85cc88cd8accbdcd8acc90ccbecd8bcc86cc93cc94cd82cd86cca9cc97cc96cc96cca3cd93ccadcca3cd95ccaccc9fcca1cd95cd95cc99cc98",
    "linkReferences": {}
  },
  "methodIdentifiers": {
    "MAX_ID()": "17bac052",
    "approve(address,uint256)": "095ea7b3",
    "balanceOf(address)": "70a08231",
    "baseUri()": "9abc8320",
    "burn(uint256)": "42966c68",
    "distributor()": "bfe10928",
    "getApproved(uint256)": "081812fc",
    "isApprovedForAll(address,address)": "e985e9c5",
    "mintFromDistributor(address,uint256)": "b22d3b35",
    "name()": "06fdde03",
    "owner()": "8da5cb5b",
    "ownerOf(uint256)": "6352211e",
    "renounceOwnership()": "715018a6",
    "royaltyInfo(uint256,uint256)": "2a55205a",
    "safeTransferFrom(address,address,uint256)": "42842e0e",
    "safeTransferFrom(address,address,uint256,bytes)": "b88d4fde",
    "setApprovalForAll(address,bool)": "a22cb465",
    "setBaseURI(string)": "55f804b3",
    "setDistributor(address)": "75619ab5",
    "supportsInterface(bytes4)": "01ffc9a7",
    "symbol()": "95d89b41",
    "tokenByIndex(uint256)": "4f6ccce7",
    "tokenOfOwnerByIndex(address,uint256)": "2f745c59",
    "tokenURI(uint256)": "c87b56dd",
    "totalSupply()": "18160ddd",
    "transferFrom(address,address,uint256)": "23b872dd",
    "transferOwnership(address)": "f2fde38b",
    "updateRoyalties(address,uint96)": "1129368c"
  },
  "id": 33
}