{
  "abi": [
    {
      "inputs": [],
      "stateMutability": "nonpayable",
      "type": "constructor"
    },
    {
      "anonymous": false,
      "inputs": [
        {
          "indexed": true,
          "internalType": "address",
          "name": "owner",
          "type": "address"
        },
        {
          "indexed": true,
          "internalType": "address",
          "name": "approved",
          "type": "address"
        },
        {
          "indexed": true,
          "internalType": "uint256",
          "name": "tokenId",
          "type": "uint256"
        }
      ],
      "name": "Approval",
      "type": "event"
    },
    {
      "anonymous": false,
      "inputs": [
        {
          "indexed": true,
          "internalType": "address",
          "name": "owner",
          "type": "address"
        },
        {
          "indexed": true,
          "internalType": "address",
          "name": "operator",
          "type": "address"
        },
        {
          "indexed": false,
          "internalType": "bool",
          "name": "approved",
          "type": "bool"
        }
      ],
      "name": "ApprovalForAll",
      "type": "event"
    },
    {
      "anonymous": false,
      "inputs": [
        {
          "indexed": true,
          "internalType": "address",
          "name": "previousOwner",
          "type": "address"
        },
        {
          "indexed": true,
          "internalType": "address",
          "name": "newOwner",
          "type": "address"
        }
      ],
      "name": "OwnershipTransferred",
      "type": "event"
    },
    {
      "anonymous": false,
      "inputs": [
        {
          "indexed": true,
          "internalType": "address",
          "name": "from",
          "type": "address"
        },
        {
          "indexed": true,
          "internalType": "address",
          "name": "to",
          "type": "address"
        },
        {
          "indexed": true,
          "internalType": "uint256",
          "name": "tokenId",
          "type": "uint256"
        }
      ],
      "name": "Transfer",
      "type": "event"
    },
    {
      "inputs": [],
      "name": "MAX_ID",
      "outputs": [
        {
          "internalType": "uint256",
          "name": "",
          "type": "uint256"
        }
      ],
      "stateMutability": "view",
      "type": "function"
    },
    {
      "inputs": [
        {
          "internalType": "address",
          "name": "to",
          "type": "address"
        },
        {
          "internalType": "uint256",
          "name": "tokenId",
          "type": "uint256"
        }
      ],
      "name": "approve",
      "outputs": [],
      "stateMutability": "nonpayable",
      "type": "function"
    },
    {
      "inputs": [
        {
          "internalType": "address",
          "name": "owner",
          "type": "address"
        }
      ],
      "name": "balanceOf",
      "outputs": [
        {
          "internalType": "uint256",
          "name": "",
          "type": "uint256"
        }
      ],
      "stateMutability": "view",
      "type": "function"
    },
    {
      "inputs": [],
      "name": "baseUri",
      "outputs": [
        {
          "internalType": "string",
          "name": "",
          "type": "string"
        }
      ],
      "stateMutability": "view",
      "type": "function"
    },
    {
      "inputs": [],
      "name": "distributor",
      "outputs": [
        {
          "internalType": "address",
          "name": "",
          "type": "address"
        }
      ],
      "stateMutability": "view",
      "type": "function"
    },
    {
      "inputs": [
        {
          "internalType": "uint256",
          "name": "tokenId",
          "type": "uint256"
        }
      ],
      "name": "getApproved",
      "outputs": [
        {
          "internalType": "address",
          "name": "",
          "type": "address"
        }
      ],
      "stateMutability": "view",
      "type": "function"
    },
    {
      "inputs": [
        {
          "internalType": "address",
          "name": "owner",
          "type": "address"
        },
        {
          "internalType": "address",
          "name": "operator",
          "type": "address"
        }
      ],
      "name": "isApprovedForAll",
      "outputs": [
        {
          "internalType": "bool",
          "name": "",
          "type": "bool"
        }
      ],
      "stateMutability": "view",
      "type": "function"
    },
    {
      "inputs": [
        {
          "internalType": "address",
          "name": "to",
          "type": "address"
        },
        {
          "internalType": "uint256",
          "name": "id",
          "type": "uint256"
        }
      ],
      "name": "mintFromDistributor",
      "outputs": [],
      "stateMutability": "nonpayable",
      "type": "function"
    },
    {
      "inputs": [],
      "name": "name",
      "outputs": [
        {
          "internalType": "string",
          "name": "",
          "type": "string"
        }
      ],
      "stateMutability": "view",
      "type": "function"
    },
    {
      "inputs": [],
      "name": "owner",
      "outputs": [
        {
          "internalType": "address",
          "name": "",
          "type": "address"
        }
      ],
      "stateMutability": "view",
      "type": "function"
    },
    {
      "inputs": [
        {
          "internalType": "uint256",
          "name": "tokenId",
          "type": "uint256"
        }
      ],
      "name": "ownerOf",
      "outputs": [
        {
          "internalType": "address",
          "name": "",
          "type": "address"
        }
      ],
      "stateMutability": "view",
      "type": "function"
    },
    {
      "inputs": [],
      "name": "renounceOwnership",
      "outputs": [],
      "stateMutability": "nonpayable",
      "type": "function"
    },
    {
      "inputs": [
        {
          "internalType": "uint256",
          "name": "_tokenId",
          "type": "uint256"
        },
        {
          "internalType": "uint256",
          "name": "_salePrice",
          "type": "uint256"
        }
      ],
      "name": "royaltyInfo",
      "outputs": [
        {
          "internalType": "address",
          "name": "",
          "type": "address"
        },
        {
          "internalType": "uint256",
          "name": "",
          "type": "uint256"
        }
      ],
      "stateMutability": "view",
      "type": "function"
    },
    {
      "inputs": [
        {
          "internalType": "address",
          "name": "from",
          "type": "address"
        },
        {
          "internalType": "address",
          "name": "to",
          "type": "address"
        },
        {
          "internalType": "uint256",
          "name": "tokenId",
          "type": "uint256"
        }
      ],
      "name": "safeTransferFrom",
      "outputs": [],
      "stateMutability": "nonpayable",
      "type": "function"
    },
    {
      "inputs": [
        {
          "internalType": "address",
          "name": "from",
          "type": "address"
        },
        {
          "internalType": "address",
          "name": "to",
          "type": "address"
        },
        {
          "internalType": "uint256",
          "name": "tokenId",
          "type": "uint256"
        },
        {
          "internalType": "bytes",
          "name": "data",
          "type": "bytes"
        }
      ],
      "name": "safeTransferFrom",
      "outputs": [],
      "stateMutability": "nonpayable",
      "type": "function"
    },
    {
      "inputs": [
        {
          "internalType": "address",
          "name": "operator",
          "type": "address"
        },
        {
          "internalType": "bool",
          "name": "approved",
          "type": "bool"
        }
      ],
      "name": "setApprovalForAll",
      "outputs": [],
      "stateMutability": "nonpayable",
      "type": "function"
    },
    {
      "inputs": [
        {
          "internalType": "string",
          "name": "newBaseURI",
          "type": "string"
        }
      ],
      "name": "setBaseURI",
      "outputs": [],
      "stateMutability": "nonpayable",
      "type": "function"
    },
    {
      "inputs": [
        {
          "internalType": "address",
          "name": "newDistributor",
          "type": "address"
        }
      ],
      "name": "setDistributor",
      "outputs": [],
      "stateMutability": "nonpayable",
      "type": "function"
    },
    {
      "inputs": [
        {
          "internalType": "bytes4",
          "name": "interfaceId",
          "type": "bytes4"
        }
      ],
      "name": "supportsInterface",
      "outputs": [
        {
          "internalType": "bool",
          "name": "",
          "type": "bool"
        }
      ],
      "stateMutability": "view",
      "type": "function"
    },
    {
      "inputs": [],
      "name": "symbol",
      "outputs": [
        {
          "internalType": "string",
          "name": "",
          "type": "string"
        }
      ],
      "stateMutability": "view",
      "type": "function"
    },
    {
      "inputs": [
        {
          "internalType": "uint256",
          "name": "index",
          "type": "uint256"
        }
      ],
      "name": "tokenByIndex",
      "outputs": [
        {
          "internalType": "uint256",
          "name": "",
          "type": "uint256"
        }
      ],
      "stateMutability": "view",
      "type": "function"
    },
    {
      "inputs": [
        {
          "internalType": "address",
          "name": "owner",
          "type": "address"
        },
        {
          "internalType": "uint256",
          "name": "index",
          "type": "uint256"
        }
      ],
      "name": "tokenOfOwnerByIndex",
      "outputs": [
        {
          "internalType": "uint256",
          "name": "",
          "type": "uint256"
        }
      ],
      "stateMutability": "view",
      "type": "function"
    },
    {
      "inputs": [
        {
          "internalType": "uint256",
          "name": "tokenId",
          "type": "uint256"
        }
      ],
      "name": "tokenURI",
      "outputs": [
        {
          "internalType": "string",
          "name": "",
          "type": "string"
        }
      ],
      "stateMutability": "view",
      "type": "function"
    },
    {
      "inputs": [],
      "name": "totalSupply",
      "outputs": [
        {
          "internalType": "uint256",
          "name": "",
          "type": "uint256"
        }
      ],
      "stateMutability": "view",
      "type": "function"
    },
    {
      "inputs": [
        {
          "internalType": "address",
          "name": "from",
          "type": "address"
        },
        {
          "internalType": "address",
          "name": "to",
          "type": "address"
        },
        {
          "internalType": "uint256",
          "name": "tokenId",
          "type": "uint256"
        }
      ],
      "name": "transferFrom",
      "outputs": [],
      "stateMutability": "nonpayable",
      "type": "function"
    },
    {
      "inputs": [
        {
          "internalType": "address",
          "name": "newOwner",
          "type": "address"
        }
      ],
      "name": "transferOwnership",
      "outputs": [],
      "stateMutability": "nonpayable",
      "type": "function"
    },
    {
      "inputs": [
        {
          "internalType": "address",
          "name": "newghoulsMultiSig",
          "type": "address"
        },
        {
          "internalType": "uint96",
          "name": "newNumerator",
          "type": "uint96"
        }
      ],
      "name": "updateRoyalties",
      "outputs": [],
      "stateMutability": "nonpayable",
      "type": "function"
    }
  ],
  "bytecode": {
    "object": "0x600d80546001600160a01b03191673fb34fc2a64bb863015145370554b5fba5efc5dc817905561010060405260596080818152906200238360a039600e90620000499082620002e3565b503480156200005757600080fd5b506040805180820182526007808252664834434b33523560c81b6020808401829052845180860190955291845290830152906000620000978382620002e3565b506001620000a68282620002e3565b505050620000c3620000bd620000e360201b60201c565b620000e7565b600d54620000dd906001600160a01b03166102b262000139565b620003af565b3390565b600c80546001600160a01b038381166001600160a01b0319831681179093556040519116919082907f8be0079c531659141344cd1fd0a4f28419497f9722a3daafe3b4186f6b6457e090600090a35050565b6127106001600160601b0382161115620001ad5760405162461bcd60e51b815260206004820152602a60248201527f455243323938313a20726f79616c7479206665652077696c6c206578636565646044820152692073616c65507269636560b01b60648201526084015b60405180910390fd5b6001600160a01b038216620002055760405162461bcd60e51b815260206004820152601960248201527f455243323938313a20696e76616c6964207265636569766572000000000000006044820152606401620001a4565b604080518082019091526001600160a01b039092168083526001600160601b039091166020909201829052600160a01b90910217600a55565b634e487b7160e01b600052604160045260246000fd5b600181811c908216806200026957607f821691505b6020821081036200028a57634e487b7160e01b600052602260045260246000fd5b50919050565b601f821115620002de57600081815260208120601f850160051c81016020861015620002b95750805b601f850160051c820191505b81811015620002da57828155600101620002c5565b5050505b505050565b81516001600160401b03811115620002ff57620002ff6200023e565b620003178162000310845462000254565b8462000290565b602080601f8311600181146200034f5760008415620003365750858301515b600019600386901b1c1916600185901b178555620002da565b600085815260208120601f198616915b8281101562000380578886015182559484019460019091019084016200035f565b50858210156200039f5787850151600019600388901b60f8161c191681555b5050505050600190811b01905550565b611fc480620003bf6000396000f3fe608060405234801561001057600080fd5b50600436106101a95760003560e01c80636352211e116100f9578063a22cb46511610097578063bfe1092811610071578063bfe1092814610389578063c87b56dd1461039c578063e985e9c5146103af578063f2fde38b146103eb57600080fd5b8063a22cb46514610350578063b22d3b3514610363578063b88d4fde1461037657600080fd5b806375619ab5116100d357806375619ab51461031c5780638da5cb5b1461032f57806395d89b41146103405780639abc83201461034857600080fd5b80636352211e146102ee57806370a0823114610301578063715018a61461031457600080fd5b806318160ddd116101665780632f745c59116101405780632f745c59146102a257806342842e0e146102b55780634f6ccce7146102c857806355f804b3146102db57600080fd5b806318160ddd1461025557806323b872dd1461025d5780632a55205a1461027057600080fd5b806301ffc9a7146101ae57806306fdde03146101d6578063081812fc146101eb578063095ea7b3146102165780631129368c1461022b57806317bac0521461023e575b600080fd5b6101c16101bc3660046118fb565b6103fe565b60405190151581526020015b60405180910390f35b6101de610444565b6040516101cd9190611968565b6101fe6101f936600461197b565b6104d6565b6040516001600160a01b0390911681526020016101cd565b6102296102243660046119b0565b6104fd565b005b6102296102393660046119da565b610617565b6102476105e381565b6040519081526020016101cd565b600854610247565b61022961026b366004611a1d565b61062d565b61028361027e366004611a59565b61065e565b604080516001600160a01b0390931683526020830191909152016101cd565b6102476102b03660046119b0565b61070a565b6102296102c3366004611a1d565b6107a0565b6102476102d636600461197b565b6107bb565b6102296102e9366004611b07565b61084e565b6101fe6102fc36600461197b565b610862565b61024761030f366004611b50565b6108c2565b610229610948565b61022961032a366004611b50565b61095c565b600c546001600160a01b03166101fe565b6101de610986565b6101de610995565b61022961035e366004611b6b565b610a23565b6102296103713660046119b0565b610a2e565b610229610384366004611b9c565b610af4565b600f546101fe906001600160a01b031681565b6101de6103aa36600461197b565b610b2c565b6101c16103bd366004611c18565b6001600160a01b03918216600090815260056020908152604080832093909416825291909152205460ff1690565b6102296103f9366004611b50565b610b93565b60006001600160e01b0319821663780e9d6360e01b148061042f57506001600160e01b0319821663152a902d60e11b145b8061043e575061043e82610c0c565b92915050565b60606000805461045390611c4b565b80601f016020809104026020016040519081016040528092919081815260200182805461047f90611c4b565b80156104cc5780601f106104a1576101008083540402835291602001916104cc565b820191906000526020600020905b8154815290600101906020018083116104af57829003601f168201915b5050505050905090565b60006104e182610c31565b506000908152600460205260409020546001600160a01b031690565b600061050882610862565b9050806001600160a01b0316836001600160a01b03160361057a5760405162461bcd60e51b815260206004820152602160248201527f4552433732313a20617070726f76616c20746f2063757272656e74206f776e656044820152603960f91b60648201526084015b60405180910390fd5b336001600160a01b0382161480610596575061059681336103bd565b6106085760405162461bcd60e51b815260206004820152603d60248201527f4552433732313a20617070726f76652063616c6c6572206973206e6f7420746f60448201527f6b656e206f776e6572206f7220617070726f76656420666f7220616c6c0000006064820152608401610571565b6106128383610c90565b505050565b61061f610cfe565b6106298282610d58565b5050565b6106373382610e55565b6106535760405162461bcd60e51b815260040161057190611c85565b610612838383610ed4565b6000828152600b602090815260408083208151808301909252546001600160a01b038116808352600160a01b9091046001600160601b03169282019290925282916106d3575060408051808201909152600a546001600160a01b0381168252600160a01b90046001600160601b031660208201525b6020810151600090612710906106f2906001600160601b031687611ce8565b6106fc9190611cff565b915196919550909350505050565b6000610715836108c2565b82106107775760405162461bcd60e51b815260206004820152602b60248201527f455243373231456e756d657261626c653a206f776e657220696e646578206f7560448201526a74206f6620626f756e647360a81b6064820152608401610571565b506001600160a01b03919091166000908152600660209081526040808320938352929052205490565b61061283838360405180602001604052806000815250610af4565b60006107c660085490565b82106108295760405162461bcd60e51b815260206004820152602c60248201527f455243373231456e756d657261626c653a20676c6f62616c20696e646578206f60448201526b7574206f6620626f756e647360a01b6064820152608401610571565b6008828154811061083c5761083c611d21565b90600052602060002001549050919050565b610856610cfe565b600e6106298282611d85565b6000818152600260205260408120546001600160a01b03168061043e5760405162461bcd60e51b8152602060048201526018602482015277115490cdcc8c4e881a5b9d985b1a59081d1bdad95b88125160421b6044820152606401610571565b60006001600160a01b03821661092c5760405162461bcd60e51b815260206004820152602960248201527f4552433732313a2061646472657373207a65726f206973206e6f7420612076616044820152683634b21037bbb732b960b91b6064820152608401610571565b506001600160a01b031660009081526003602052604090205490565b610950610cfe565b61095a6000611045565b565b610964610cfe565b600f80546001600160a01b0319166001600160a01b0392909216919091179055565b60606001805461045390611c4b565b600e80546109a290611c4b565b80601f01602080910402602001604051908101604052809291908181526020018280546109ce90611c4b565b8015610a1b5780601f106109f057610100808354040283529160200191610a1b565b820191906000526020600020905b8154815290600101906020018083116109fe57829003601f168201915b505050505081565b610629338383611097565b600f546001600160a01b03163314610a975760405162461bcd60e51b815260206004820152602660248201527f4834434b3352353a2063616c6c6572206973206e6f742074686520646973747260448201526534b13aba37b960d11b6064820152608401610571565b6105e38111158015610aa857508015155b610aea5760405162461bcd60e51b8152602060048201526013602482015272120d10d2ccd48d4e881a5b9d985b1a59081251606a1b6044820152606401610571565b6106298282611165565b610afe3383610e55565b610b1a5760405162461bcd60e51b815260040161057190611c85565b610b26848484846112fe565b50505050565b6060610b3782610c31565b6000610b41611331565b90506000815111610b615760405180602001604052806000815250610b8c565b80610b6b84611340565b604051602001610b7c929190611e45565b6040516020818303038152906040525b9392505050565b610b9b610cfe565b6001600160a01b038116610c005760405162461bcd60e51b815260206004820152602660248201527f4f776e61626c653a206e6577206f776e657220697320746865207a65726f206160448201526564647265737360d01b6064820152608401610571565b610c0981611045565b50565b60006001600160e01b0319821663152a902d60e11b148061043e575061043e826113d3565b6000818152600260205260409020546001600160a01b0316610c095760405162461bcd60e51b8152602060048201526018602482015277115490cdcc8c4e881a5b9d985b1a59081d1bdad95b88125160421b6044820152606401610571565b600081815260046020526040902080546001600160a01b0319166001600160a01b0384169081179091558190610cc582610862565b6001600160a01b03167f8c5be1e5ebec7d5bd14f71427d1e84f3dd0314c0f7b2291e5b200ac8c7c3b92560405160405180910390a45050565b600c546001600160a01b0316331461095a5760405162461bcd60e51b815260206004820181905260248201527f4f776e61626c653a2063616c6c6572206973206e6f7420746865206f776e65726044820152606401610571565b6127106001600160601b0382161115610dc65760405162461bcd60e51b815260206004820152602a60248201527f455243323938313a20726f79616c7479206665652077696c6c206578636565646044820152692073616c65507269636560b01b6064820152608401610571565b6001600160a01b038216610e1c5760405162461bcd60e51b815260206004820152601960248201527f455243323938313a20696e76616c6964207265636569766572000000000000006044820152606401610571565b604080518082019091526001600160a01b039092168083526001600160601b039091166020909201829052600160a01b90910217600a55565b600080610e6183610862565b9050806001600160a01b0316846001600160a01b03161480610ea857506001600160a01b0380821660009081526005602090815260408083209388168352929052205460ff165b80610ecc5750836001600160a01b0316610ec1846104d6565b6001600160a01b0316145b949350505050565b826001600160a01b0316610ee782610862565b6001600160a01b031614610f0d5760405162461bcd60e51b815260040161057190611e74565b6001600160a01b038216610f6f5760405162461bcd60e51b8152602060048201526024808201527f4552433732313a207472616e7366657220746f20746865207a65726f206164646044820152637265737360e01b6064820152608401610571565b610f7c83838360016113f8565b826001600160a01b0316610f8f82610862565b6001600160a01b031614610fb55760405162461bcd60e51b815260040161057190611e74565b600081815260046020908152604080832080546001600160a01b03199081169091556001600160a01b0387811680865260038552838620805460001901905590871680865283862080546001019055868652600290945282852080549092168417909155905184937fddf252ad1be2c89b69c2b068fc378daa952ba7f163c4a11628f55a4df523b3ef91a4505050565b600c80546001600160a01b038381166001600160a01b0319831681179093556040519116919082907f8be0079c531659141344cd1fd0a4f28419497f9722a3daafe3b4186f6b6457e090600090a35050565b816001600160a01b0316836001600160a01b0316036110f85760405162461bcd60e51b815260206004820152601960248201527f4552433732313a20617070726f766520746f2063616c6c6572000000000000006044820152606401610571565b6001600160a01b03838116600081815260056020908152604080832094871680845294825291829020805460ff191686151590811790915591519182527f17307eab39ab6107e8899845ad3d59bd9653f200f220920489ca2b5937696c31910160405180910390a3505050565b6001600160a01b0382166111bb5760405162461bcd60e51b815260206004820181905260248201527f4552433732313a206d696e7420746f20746865207a65726f20616464726573736044820152606401610571565b6000818152600260205260409020546001600160a01b0316156112205760405162461bcd60e51b815260206004820152601c60248201527f4552433732313a20746f6b656e20616c7265616479206d696e746564000000006044820152606401610571565b61122e6000838360016113f8565b6000818152600260205260409020546001600160a01b0316156112935760405162461bcd60e51b815260206004820152601c60248201527f4552433732313a20746f6b656e20616c7265616479206d696e746564000000006044820152606401610571565b6001600160a01b038216600081815260036020908152604080832080546001019055848352600290915280822080546001600160a01b0319168417905551839291907fddf252ad1be2c89b69c2b068fc378daa952ba7f163c4a11628f55a4df523b3ef908290a45050565b611309848484610ed4565b6113158484848461152c565b610b265760405162461bcd60e51b815260040161057190611eb9565b6060600e805461045390611c4b565b6060600061134d8361162d565b600101905060008167ffffffffffffffff81111561136d5761136d611a7b565b6040519080825280601f01601f191660200182016040528015611397576020820181803683370190505b5090508181016020015b600019016f181899199a1a9b1b9c1cb0b131b232b360811b600a86061a8153600a85049450846113a157509392505050565b60006001600160e01b0319821663780e9d6360e01b148061043e575061043e82611705565b60018111156114675760405162461bcd60e51b815260206004820152603560248201527f455243373231456e756d657261626c653a20636f6e7365637574697665207472604482015274185b9cd9995c9cc81b9bdd081cdd5c1c1bdc9d1959605a1b6064820152608401610571565b816001600160a01b0385166114c3576114be81600880546000838152600960205260408120829055600182018355919091527ff3f7a9fe364faab93b216da50a3214154f22a0a2b415b23a84c8169e8b636ee30155565b6114e6565b836001600160a01b0316856001600160a01b0316146114e6576114e68582611755565b6001600160a01b038416611502576114fd816117f2565b611525565b846001600160a01b0316846001600160a01b0316146115255761152584826118a1565b5050505050565b60006001600160a01b0384163b1561162257604051630a85bd0160e11b81526001600160a01b0385169063150b7a0290611570903390899088908890600401611f0b565b6020604051808303816000875af19250505080156115ab575060408051601f3d908101601f191682019092526115a891810190611f48565b60015b611608573d8080156115d9576040519150601f19603f3d011682016040523d82523d6000602084013e6115de565b606091505b5080516000036116005760405162461bcd60e51b815260040161057190611eb9565b805181602001fd5b6001600160e01b031916630a85bd0160e11b149050610ecc565b506001949350505050565b60008072184f03e93ff9f4daa797ed6e38ed64bf6a1f0160401b831061166c5772184f03e93ff9f4daa797ed6e38ed64bf6a1f0160401b830492506040015b6d04ee2d6d415b85acef81000000008310611698576d04ee2d6d415b85acef8100000000830492506020015b662386f26fc1000083106116b657662386f26fc10000830492506010015b6305f5e10083106116ce576305f5e100830492506008015b61271083106116e257612710830492506004015b606483106116f4576064830492506002015b600a831061043e5760010192915050565b60006001600160e01b031982166380ac58cd60e01b148061173657506001600160e01b03198216635b5e139f60e01b145b8061043e57506301ffc9a760e01b6001600160e01b031983161461043e565b60006001611762846108c2565b61176c9190611f65565b6000838152600760205260409020549091508082146117bf576001600160a01b03841660009081526006602090815260408083208584528252808320548484528184208190558352600790915290208190555b5060009182526007602090815260408084208490556001600160a01b039094168352600681528383209183525290812055565b60085460009061180490600190611f65565b6000838152600960205260408120546008805493945090928490811061182c5761182c611d21565b90600052602060002001549050806008838154811061184d5761184d611d21565b600091825260208083209091019290925582815260099091526040808220849055858252812055600880548061188557611885611f78565b6001900381819060005260206000200160009055905550505050565b60006118ac836108c2565b6001600160a01b039093166000908152600660209081526040808320868452825280832085905593825260079052919091209190915550565b6001600160e01b031981168114610c0957600080fd5b60006020828403121561190d57600080fd5b8135610b8c816118e5565b60005b8381101561193357818101518382015260200161191b565b50506000910152565b60008151808452611954816020860160208601611918565b601f01601f19169290920160200192915050565b602081526000610b8c602083018461193c565b60006020828403121561198d57600080fd5b5035919050565b80356001600160a01b03811681146119ab57600080fd5b919050565b600080604083850312156119c357600080fd5b6119cc83611994565b946020939093013593505050565b600080604083850312156119ed57600080fd5b6119f683611994565b915060208301356001600160601b0381168114611a1257600080fd5b809150509250929050565b600080600060608486031215611a3257600080fd5b611a3b84611994565b9250611a4960208501611994565b9150604084013590509250925092565b60008060408385031215611a6c57600080fd5b50508035926020909101359150565b634e487b7160e01b600052604160045260246000fd5b600067ffffffffffffffff80841115611aac57611aac611a7b565b604051601f8501601f19908116603f01168101908282118183101715611ad457611ad4611a7b565b81604052809350858152868686011115611aed57600080fd5b858560208301376000602087830101525050509392505050565b600060208284031215611b1957600080fd5b813567ffffffffffffffff811115611b3057600080fd5b8201601f81018413611b4157600080fd5b610ecc84823560208401611a91565b600060208284031215611b6257600080fd5b610b8c82611994565b60008060408385031215611b7e57600080fd5b611b8783611994565b915060208301358015158114611a1257600080fd5b60008060008060808587031215611bb257600080fd5b611bbb85611994565b9350611bc960208601611994565b925060408501359150606085013567ffffffffffffffff811115611bec57600080fd5b8501601f81018713611bfd57600080fd5b611c0c87823560208401611a91565b91505092959194509250565b60008060408385031215611c2b57600080fd5b611c3483611994565b9150611c4260208401611994565b90509250929050565b600181811c90821680611c5f57607f821691505b602082108103611c7f57634e487b7160e01b600052602260045260246000fd5b50919050565b6020808252602d908201527f4552433732313a2063616c6c6572206973206e6f7420746f6b656e206f776e6560408201526c1c881bdc88185c1c1c9bdd9959609a1b606082015260800190565b634e487b7160e01b600052601160045260246000fd5b808202811582820484141761043e5761043e611cd2565b600082611d1c57634e487b7160e01b600052601260045260246000fd5b500490565b634e487b7160e01b600052603260045260246000fd5b601f82111561061257600081815260208120601f850160051c81016020861015611d5e5750805b601f850160051c820191505b81811015611d7d57828155600101611d6a565b505050505050565b815167ffffffffffffffff811115611d9f57611d9f611a7b565b611db381611dad8454611c4b565b84611d37565b602080601f831160018114611de85760008415611dd05750858301515b600019600386901b1c1916600185901b178555611d7d565b600085815260208120601f198616915b82811015611e1757888601518255948401946001909101908401611df8565b5085821015611e355787850151600019600388901b60f8161c191681555b5050505050600190811b01905550565b60008351611e57818460208801611918565b835190830190611e6b818360208801611918565b01949350505050565b60208082526025908201527f4552433732313a207472616e736665722066726f6d20696e636f72726563742060408201526437bbb732b960d91b606082015260800190565b60208082526032908201527f4552433732313a207472616e7366657220746f206e6f6e20455243373231526560408201527131b2b4bb32b91034b6b83632b6b2b73a32b960711b606082015260800190565b6001600160a01b0385811682528416602082015260408101839052608060608201819052600090611f3e9083018461193c565b9695505050505050565b600060208284031215611f5a57600080fd5b8151610b8c816118e5565b8181038181111561043e5761043e611cd2565b634e487b7160e01b600052603160045260246000fdfea26469706673582212202fa017a5c1bc28e7dd315784e8dbf081e49c45f90b92e759e74cd87db0cf0fda64736f6c6343000811003368747470733a2f2f62616679626569636e6f786a6f726179667832653375646f3767626269326162366a36626463337969347668627262706b7a37667a7169696d64752e697066732e6e667473746f726167652e6c696e6b2f",
    "linkReferences": {}
  },
  "methodIdentifiers": {
    "MAX_ID()": "17bac052",
    "approve(address,uint256)": "095ea7b3",
    "balanceOf(address)": "70a08231",
    "baseUri()": "9abc8320",
    "distributor()": "bfe10928",
    "getApproved(uint256)": "081812fc",
    "isApprovedForAll(address,address)": "e985e9c5",
    "mintFromDistributor(address,uint256)": "b22d3b35",
    "name()": "06fdde03",
    "owner()": "8da5cb5b",
    "ownerOf(uint256)": "6352211e",
    "renounceOwnership()": "715018a6",
    "royaltyInfo(uint256,uint256)": "2a55205a",
    "safeTransferFrom(address,address,uint256)": "42842e0e",
    "safeTransferFrom(address,address,uint256,bytes)": "b88d4fde",
    "setApprovalForAll(address,bool)": "a22cb465",
    "setBaseURI(string)": "55f804b3",
    "setDistributor(address)": "75619ab5",
    "supportsInterface(bytes4)": "01ffc9a7",
    "symbol()": "95d89b41",
    "tokenByIndex(uint256)": "4f6ccce7",
    "tokenOfOwnerByIndex(address,uint256)": "2f745c59",
    "tokenURI(uint256)": "c87b56dd",
    "totalSupply()": "18160ddd",
    "transferFrom(address,address,uint256)": "23b872dd",
    "transferOwnership(address)": "f2fde38b",
    "updateRoyalties(address,uint96)": "1129368c"
  },
  "id": 33
}