{
  "abi": [
    {
      "inputs": [],
      "stateMutability": "nonpayable",
      "type": "constructor"
    },
    {
      "anonymous": false,
      "inputs": [
        {
          "indexed": true,
          "internalType": "address",
          "name": "owner",
          "type": "address"
        },
        {
          "indexed": true,
          "internalType": "address",
          "name": "approved",
          "type": "address"
        },
        {
          "indexed": true,
          "internalType": "uint256",
          "name": "tokenId",
          "type": "uint256"
        }
      ],
      "name": "Approval",
      "type": "event"
    },
    {
      "anonymous": false,
      "inputs": [
        {
          "indexed": true,
          "internalType": "address",
          "name": "owner",
          "type": "address"
        },
        {
          "indexed": true,
          "internalType": "address",
          "name": "operator",
          "type": "address"
        },
        {
          "indexed": false,
          "internalType": "bool",
          "name": "approved",
          "type": "bool"
        }
      ],
      "name": "ApprovalForAll",
      "type": "event"
    },
    {
      "anonymous": false,
      "inputs": [
        {
          "indexed": true,
          "internalType": "address",
          "name": "previousOwner",
          "type": "address"
        },
        {
          "indexed": true,
          "internalType": "address",
          "name": "newOwner",
          "type": "address"
        }
      ],
      "name": "OwnershipTransferred",
      "type": "event"
    },
    {
      "anonymous": false,
      "inputs": [
        {
          "indexed": true,
          "internalType": "address",
          "name": "from",
          "type": "address"
        },
        {
          "indexed": true,
          "internalType": "address",
          "name": "to",
          "type": "address"
        },
        {
          "indexed": true,
          "internalType": "uint256",
          "name": "tokenId",
          "type": "uint256"
        }
      ],
      "name": "Transfer",
      "type": "event"
    },
    {
      "inputs": [],
      "name": "MAX_ID",
      "outputs": [
        {
          "internalType": "uint256",
          "name": "",
          "type": "uint256"
        }
      ],
      "stateMutability": "view",
      "type": "function"
    },
    {
      "inputs": [
        {
          "internalType": "address",
          "name": "to",
          "type": "address"
        },
        {
          "internalType": "uint256",
          "name": "tokenId",
          "type": "uint256"
        }
      ],
      "name": "approve",
      "outputs": [],
      "stateMutability": "nonpayable",
      "type": "function"
    },
    {
      "inputs": [
        {
          "internalType": "address",
          "name": "owner",
          "type": "address"
        }
      ],
      "name": "balanceOf",
      "outputs": [
        {
          "internalType": "uint256",
          "name": "",
          "type": "uint256"
        }
      ],
      "stateMutability": "view",
      "type": "function"
    },
    {
      "inputs": [],
      "name": "baseUri",
      "outputs": [
        {
          "internalType": "string",
          "name": "",
          "type": "string"
        }
      ],
      "stateMutability": "view",
      "type": "function"
    },
    {
      "inputs": [],
      "name": "distributor",
      "outputs": [
        {
          "internalType": "address",
          "name": "",
          "type": "address"
        }
      ],
      "stateMutability": "view",
      "type": "function"
    },
    {
      "inputs": [
        {
          "internalType": "uint256",
          "name": "tokenId",
          "type": "uint256"
        }
      ],
      "name": "getApproved",
      "outputs": [
        {
          "internalType": "address",
          "name": "",
          "type": "address"
        }
      ],
      "stateMutability": "view",
      "type": "function"
    },
    {
      "inputs": [
        {
          "internalType": "address",
          "name": "owner",
          "type": "address"
        },
        {
          "internalType": "address",
          "name": "operator",
          "type": "address"
        }
      ],
      "name": "isApprovedForAll",
      "outputs": [
        {
          "internalType": "bool",
          "name": "",
          "type": "bool"
        }
      ],
      "stateMutability": "view",
      "type": "function"
    },
    {
      "inputs": [
        {
          "internalType": "address",
          "name": "to",
          "type": "address"
        },
        {
          "internalType": "uint256",
          "name": "id",
          "type": "uint256"
        }
      ],
      "name": "mintFromDistributor",
      "outputs": [],
      "stateMutability": "nonpayable",
      "type": "function"
    },
    {
      "inputs": [],
      "name": "name",
      "outputs": [
        {
          "internalType": "string",
          "name": "",
          "type": "string"
        }
      ],
      "stateMutability": "view",
      "type": "function"
    },
    {
      "inputs": [],
      "name": "owner",
      "outputs": [
        {
          "internalType": "address",
          "name": "",
          "type": "address"
        }
      ],
      "stateMutability": "view",
      "type": "function"
    },
    {
      "inputs": [
        {
          "internalType": "uint256",
          "name": "tokenId",
          "type": "uint256"
        }
      ],
      "name": "ownerOf",
      "outputs": [
        {
          "internalType": "address",
          "name": "",
          "type": "address"
        }
      ],
      "stateMutability": "view",
      "type": "function"
    },
    {
      "inputs": [],
      "name": "renounceOwnership",
      "outputs": [],
      "stateMutability": "nonpayable",
      "type": "function"
    },
    {
      "inputs": [
        {
          "internalType": "uint256",
          "name": "_tokenId",
          "type": "uint256"
        },
        {
          "internalType": "uint256",
          "name": "_salePrice",
          "type": "uint256"
        }
      ],
      "name": "royaltyInfo",
      "outputs": [
        {
          "internalType": "address",
          "name": "",
          "type": "address"
        },
        {
          "internalType": "uint256",
          "name": "",
          "type": "uint256"
        }
      ],
      "stateMutability": "view",
      "type": "function"
    },
    {
      "inputs": [
        {
          "internalType": "address",
          "name": "from",
          "type": "address"
        },
        {
          "internalType": "address",
          "name": "to",
          "type": "address"
        },
        {
          "internalType": "uint256",
          "name": "tokenId",
          "type": "uint256"
        }
      ],
      "name": "safeTransferFrom",
      "outputs": [],
      "stateMutability": "nonpayable",
      "type": "function"
    },
    {
      "inputs": [
        {
          "internalType": "address",
          "name": "from",
          "type": "address"
        },
        {
          "internalType": "address",
          "name": "to",
          "type": "address"
        },
        {
          "internalType": "uint256",
          "name": "tokenId",
          "type": "uint256"
        },
        {
          "internalType": "bytes",
          "name": "data",
          "type": "bytes"
        }
      ],
      "name": "safeTransferFrom",
      "outputs": [],
      "stateMutability": "nonpayable",
      "type": "function"
    },
    {
      "inputs": [
        {
          "internalType": "address",
          "name": "operator",
          "type": "address"
        },
        {
          "internalType": "bool",
          "name": "approved",
          "type": "bool"
        }
      ],
      "name": "setApprovalForAll",
      "outputs": [],
      "stateMutability": "nonpayable",
      "type": "function"
    },
    {
      "inputs": [
        {
          "internalType": "string",
          "name": "newBaseURI",
          "type": "string"
        }
      ],
      "name": "setBaseURI",
      "outputs": [],
      "stateMutability": "nonpayable",
      "type": "function"
    },
    {
      "inputs": [
        {
          "internalType": "address",
          "name": "newDistributor",
          "type": "address"
        }
      ],
      "name": "setDistributor",
      "outputs": [],
      "stateMutability": "nonpayable",
      "type": "function"
    },
    {
      "inputs": [
        {
          "internalType": "bytes4",
          "name": "interfaceId",
          "type": "bytes4"
        }
      ],
      "name": "supportsInterface",
      "outputs": [
        {
          "internalType": "bool",
          "name": "",
          "type": "bool"
        }
      ],
      "stateMutability": "view",
      "type": "function"
    },
    {
      "inputs": [],
      "name": "symbol",
      "outputs": [
        {
          "internalType": "string",
          "name": "",
          "type": "string"
        }
      ],
      "stateMutability": "view",
      "type": "function"
    },
    {
      "inputs": [
        {
          "internalType": "uint256",
          "name": "index",
          "type": "uint256"
        }
      ],
      "name": "tokenByIndex",
      "outputs": [
        {
          "internalType": "uint256",
          "name": "",
          "type": "uint256"
        }
      ],
      "stateMutability": "view",
      "type": "function"
    },
    {
      "inputs": [
        {
          "internalType": "address",
          "name": "owner",
          "type": "address"
        },
        {
          "internalType": "uint256",
          "name": "index",
          "type": "uint256"
        }
      ],
      "name": "tokenOfOwnerByIndex",
      "outputs": [
        {
          "internalType": "uint256",
          "name": "",
          "type": "uint256"
        }
      ],
      "stateMutability": "view",
      "type": "function"
    },
    {
      "inputs": [
        {
          "internalType": "uint256",
          "name": "tokenId",
          "type": "uint256"
        }
      ],
      "name": "tokenURI",
      "outputs": [
        {
          "internalType": "string",
          "name": "",
          "type": "string"
        }
      ],
      "stateMutability": "view",
      "type": "function"
    },
    {
      "inputs": [],
      "name": "totalSupply",
      "outputs": [
        {
          "internalType": "uint256",
          "name": "",
          "type": "uint256"
        }
      ],
      "stateMutability": "view",
      "type": "function"
    },
    {
      "inputs": [
        {
          "internalType": "address",
          "name": "from",
          "type": "address"
        },
        {
          "internalType": "address",
          "name": "to",
          "type": "address"
        },
        {
          "internalType": "uint256",
          "name": "tokenId",
          "type": "uint256"
        }
      ],
      "name": "transferFrom",
      "outputs": [],
      "stateMutability": "nonpayable",
      "type": "function"
    },
    {
      "inputs": [
        {
          "internalType": "address",
          "name": "newOwner",
          "type": "address"
        }
      ],
      "name": "transferOwnership",
      "outputs": [],
      "stateMutability": "nonpayable",
      "type": "function"
    },
    {
      "inputs": [
        {
          "internalType": "address",
          "name": "newghoulsMultiSig",
          "type": "address"
        },
        {
          "internalType": "uint96",
          "name": "newNumerator",
          "type": "uint96"
        }
      ],
      "name": "updateRoyalties",
      "outputs": [],
      "stateMutability": "nonpayable",
      "type": "function"
    }
  ],
  "bytecode": {
    "object": "0x600d80546001600160a01b03191673fb34fc2a64bb863015145370554b5fba5efc5dc81790556101006040526059608081815290620025ab60a039600e90620000499082620002e3565b503480156200005757600080fd5b506040805180820182526007808252664834434b33523560c81b6020808401829052845180860190955291845290830152906000620000978382620002e3565b506001620000a68282620002e3565b505050620000c3620000bd620000e360201b60201c565b620000e7565b600d54620000dd906001600160a01b03166102b262000139565b620003af565b3390565b600c80546001600160a01b038381166001600160a01b0319831681179093556040519116919082907f8be0079c531659141344cd1fd0a4f28419497f9722a3daafe3b4186f6b6457e090600090a35050565b6127106001600160601b0382161115620001ad5760405162461bcd60e51b815260206004820152602a60248201527f455243323938313a20726f79616c7479206665652077696c6c206578636565646044820152692073616c65507269636560b01b60648201526084015b60405180910390fd5b6001600160a01b038216620002055760405162461bcd60e51b815260206004820152601960248201527f455243323938313a20696e76616c6964207265636569766572000000000000006044820152606401620001a4565b604080518082019091526001600160a01b039092168083526001600160601b039091166020909201829052600160a01b90910217600a55565b634e487b7160e01b600052604160045260246000fd5b600181811c908216806200026957607f821691505b6020821081036200028a57634e487b7160e01b600052602260045260246000fd5b50919050565b601f821115620002de57600081815260208120601f850160051c81016020861015620002b95750805b601f850160051c820191505b81811015620002da57828155600101620002c5565b5050505b505050565b81516001600160401b03811115620002ff57620002ff6200023e565b620003178162000310845462000254565b8462000290565b602080601f8311600181146200034f5760008415620003365750858301515b600019600386901b1c1916600185901b178555620002da565b600085815260208120601f198616915b8281101562000380578886015182559484019460019091019084016200035f565b50858210156200039f5787850151600019600388901b60f8161c191681555b5050505050600190811b01905550565b6121ec80620003bf6000396000f3fe608060405234801561001057600080fd5b50600436106101b95760003560e01c80636352211e116100f9578063a22cb46511610097578063bfe1092811610071578063bfe1092814610399578063c87b56dd146103ac578063e985e9c5146103bf578063f2fde38b146103fb57600080fd5b8063a22cb46514610360578063b22d3b3514610373578063b88d4fde1461038657600080fd5b806375619ab5116100d357806375619ab51461032c5780638da5cb5b1461033f57806395d89b41146103505780639abc83201461035857600080fd5b80636352211e146102fe57806370a0823114610311578063715018a61461032457600080fd5b806318160ddd116101665780632f745c59116101405780632f745c59146102b257806342842e0e146102c55780634f6ccce7146102d857806355f804b3146102eb57600080fd5b806318160ddd1461026557806323b872dd1461026d5780632a55205a1461028057600080fd5b8063095ea7b311610197578063095ea7b3146102265780631129368c1461023b57806317bac0521461024e57600080fd5b806301ffc9a7146101be57806306fdde03146101e6578063081812fc146101fb575b600080fd5b6101d16101cc366004611c03565b61040e565b60405190151581526020015b60405180910390f35b6101ee610454565b6040516101dd9190611c70565b61020e610209366004611c83565b6104e6565b6040516001600160a01b0390911681526020016101dd565b610239610234366004611cb8565b61050d565b005b610239610249366004611ce2565b610643565b6102576105e381565b6040519081526020016101dd565b600854610257565b61023961027b366004611d2a565b610659565b61029361028e366004611d66565b6106d0565b604080516001600160a01b0390931683526020830191909152016101dd565b6102576102c0366004611cb8565b61078b565b6102396102d3366004611d2a565b610833565b6102576102e6366004611c83565b61084e565b6102396102f9366004611e14565b6108f2565b61020e61030c366004611c83565b610906565b61025761031f366004611e5d565b61096b565b610239610a05565b61023961033a366004611e5d565b610a19565b600c546001600160a01b031661020e565b6101ee610a43565b6101ee610a52565b61023961036e366004611e78565b610ae0565b610239610381366004611cb8565b610aeb565b610239610394366004611ea9565b610bd2565b600f5461020e906001600160a01b031681565b6101ee6103ba366004611c83565b610c50565b6101d16103cd366004611f25565b6001600160a01b03918216600090815260056020908152604080832093909416825291909152205460ff1690565b610239610409366004611e5d565b610cb7565b60006001600160e01b0319821663780e9d6360e01b148061043f57506001600160e01b0319821663152a902d60e11b145b8061044e575061044e82610d47565b92915050565b60606000805461046390611f58565b80601f016020809104026020016040519081016040528092919081815260200182805461048f90611f58565b80156104dc5780601f106104b1576101008083540402835291602001916104dc565b820191906000526020600020905b8154815290600101906020018083116104bf57829003601f168201915b5050505050905090565b60006104f182610d6c565b506000908152600460205260409020546001600160a01b031690565b600061051882610906565b9050806001600160a01b0316836001600160a01b0316036105a65760405162461bcd60e51b815260206004820152602160248201527f4552433732313a20617070726f76616c20746f2063757272656e74206f776e6560448201527f720000000000000000000000000000000000000000000000000000000000000060648201526084015b60405180910390fd5b336001600160a01b03821614806105c257506105c281336103cd565b6106345760405162461bcd60e51b815260206004820152603d60248201527f4552433732313a20617070726f76652063616c6c6572206973206e6f7420746f60448201527f6b656e206f776e6572206f7220617070726f76656420666f7220616c6c000000606482015260840161059d565b61063e8383610dd0565b505050565b61064b610e3e565b6106558282610e98565b5050565b6106633382610fb2565b6106c55760405162461bcd60e51b815260206004820152602d60248201527f4552433732313a2063616c6c6572206973206e6f7420746f6b656e206f776e6560448201526c1c881bdc88185c1c1c9bdd9959609a1b606482015260840161059d565b61063e838383611031565b6000828152600b602090815260408083208151808301909252546001600160a01b038116808352600160a01b9091046bffffffffffffffffffffffff1692820192909252829161074f575060408051808201909152600a546001600160a01b0381168252600160a01b90046bffffffffffffffffffffffff1660208201525b602081015160009061271090610773906bffffffffffffffffffffffff1687611fa8565b61077d9190611fbf565b915196919550909350505050565b60006107968361096b565b821061080a5760405162461bcd60e51b815260206004820152602b60248201527f455243373231456e756d657261626c653a206f776e657220696e646578206f7560448201527f74206f6620626f756e6473000000000000000000000000000000000000000000606482015260840161059d565b506001600160a01b03919091166000908152600660209081526040808320938352929052205490565b61063e83838360405180602001604052806000815250610bd2565b600061085960085490565b82106108cd5760405162461bcd60e51b815260206004820152602c60248201527f455243373231456e756d657261626c653a20676c6f62616c20696e646578206f60448201527f7574206f6620626f756e64730000000000000000000000000000000000000000606482015260840161059d565b600882815481106108e0576108e0611fe1565b90600052602060002001549050919050565b6108fa610e3e565b600e6106558282612045565b6000818152600260205260408120546001600160a01b03168061044e5760405162461bcd60e51b815260206004820152601860248201527f4552433732313a20696e76616c696420746f6b656e2049440000000000000000604482015260640161059d565b60006001600160a01b0382166109e95760405162461bcd60e51b815260206004820152602960248201527f4552433732313a2061646472657373207a65726f206973206e6f74206120766160448201527f6c6964206f776e65720000000000000000000000000000000000000000000000606482015260840161059d565b506001600160a01b031660009081526003602052604090205490565b610a0d610e3e565b610a176000611237565b565b610a21610e3e565b600f80546001600160a01b0319166001600160a01b0392909216919091179055565b60606001805461046390611f58565b600e8054610a5f90611f58565b80601f0160208091040260200160405190810160405280929190818152602001828054610a8b90611f58565b8015610ad85780601f10610aad57610100808354040283529160200191610ad8565b820191906000526020600020905b815481529060010190602001808311610abb57829003601f168201915b505050505081565b610655338383611289565b600f546001600160a01b03163314610b6b5760405162461bcd60e51b815260206004820152602660248201527f4834434b3352353a2063616c6c6572206973206e6f742074686520646973747260448201527f696275746f720000000000000000000000000000000000000000000000000000606482015260840161059d565b6105e38111158015610b7c57508015155b610bc85760405162461bcd60e51b815260206004820152601360248201527f4834434b3352353a20696e76616c696420494400000000000000000000000000604482015260640161059d565b6106558282611357565b610bdc3383610fb2565b610c3e5760405162461bcd60e51b815260206004820152602d60248201527f4552433732313a2063616c6c6572206973206e6f7420746f6b656e206f776e6560448201526c1c881bdc88185c1c1c9bdd9959609a1b606482015260840161059d565b610c4a848484846114f0565b50505050565b6060610c5b82610d6c565b6000610c65611579565b90506000815111610c855760405180602001604052806000815250610cb0565b80610c8f84611588565b604051602001610ca0929190612105565b6040516020818303038152906040525b9392505050565b610cbf610e3e565b6001600160a01b038116610d3b5760405162461bcd60e51b815260206004820152602660248201527f4f776e61626c653a206e6577206f776e657220697320746865207a65726f206160448201527f6464726573730000000000000000000000000000000000000000000000000000606482015260840161059d565b610d4481611237565b50565b60006001600160e01b0319821663152a902d60e11b148061044e575061044e82611628565b6000818152600260205260409020546001600160a01b0316610d445760405162461bcd60e51b815260206004820152601860248201527f4552433732313a20696e76616c696420746f6b656e2049440000000000000000604482015260640161059d565b600081815260046020526040902080546001600160a01b0319166001600160a01b0384169081179091558190610e0582610906565b6001600160a01b03167f8c5be1e5ebec7d5bd14f71427d1e84f3dd0314c0f7b2291e5b200ac8c7c3b92560405160405180910390a45050565b600c546001600160a01b03163314610a175760405162461bcd60e51b815260206004820181905260248201527f4f776e61626c653a2063616c6c6572206973206e6f7420746865206f776e6572604482015260640161059d565b6127106bffffffffffffffffffffffff82161115610f1e5760405162461bcd60e51b815260206004820152602a60248201527f455243323938313a20726f79616c7479206665652077696c6c2065786365656460448201527f2073616c65507269636500000000000000000000000000000000000000000000606482015260840161059d565b6001600160a01b038216610f745760405162461bcd60e51b815260206004820152601960248201527f455243323938313a20696e76616c696420726563656976657200000000000000604482015260640161059d565b604080518082019091526001600160a01b039092168083526bffffffffffffffffffffffff9091166020909201829052600160a01b90910217600a55565b600080610fbe83610906565b9050806001600160a01b0316846001600160a01b0316148061100557506001600160a01b0380821660009081526005602090815260408083209388168352929052205460ff165b806110295750836001600160a01b031661101e846104e6565b6001600160a01b0316145b949350505050565b826001600160a01b031661104482610906565b6001600160a01b0316146110a85760405162461bcd60e51b815260206004820152602560248201527f4552433732313a207472616e736665722066726f6d20696e636f72726563742060448201526437bbb732b960d91b606482015260840161059d565b6001600160a01b0382166111235760405162461bcd60e51b8152602060048201526024808201527f4552433732313a207472616e7366657220746f20746865207a65726f2061646460448201527f7265737300000000000000000000000000000000000000000000000000000000606482015260840161059d565b611130838383600161164d565b826001600160a01b031661114382610906565b6001600160a01b0316146111a75760405162461bcd60e51b815260206004820152602560248201527f4552433732313a207472616e736665722066726f6d20696e636f72726563742060448201526437bbb732b960d91b606482015260840161059d565b600081815260046020908152604080832080546001600160a01b03199081169091556001600160a01b0387811680865260038552838620805460001901905590871680865283862080546001019055868652600290945282852080549092168417909155905184937fddf252ad1be2c89b69c2b068fc378daa952ba7f163c4a11628f55a4df523b3ef91a4505050565b600c80546001600160a01b038381166001600160a01b0319831681179093556040519116919082907f8be0079c531659141344cd1fd0a4f28419497f9722a3daafe3b4186f6b6457e090600090a35050565b816001600160a01b0316836001600160a01b0316036112ea5760405162461bcd60e51b815260206004820152601960248201527f4552433732313a20617070726f766520746f2063616c6c657200000000000000604482015260640161059d565b6001600160a01b03838116600081815260056020908152604080832094871680845294825291829020805460ff191686151590811790915591519182527f17307eab39ab6107e8899845ad3d59bd9653f200f220920489ca2b5937696c31910160405180910390a3505050565b6001600160a01b0382166113ad5760405162461bcd60e51b815260206004820181905260248201527f4552433732313a206d696e7420746f20746865207a65726f2061646472657373604482015260640161059d565b6000818152600260205260409020546001600160a01b0316156114125760405162461bcd60e51b815260206004820152601c60248201527f4552433732313a20746f6b656e20616c7265616479206d696e74656400000000604482015260640161059d565b61142060008383600161164d565b6000818152600260205260409020546001600160a01b0316156114855760405162461bcd60e51b815260206004820152601c60248201527f4552433732313a20746f6b656e20616c7265616479206d696e74656400000000604482015260640161059d565b6001600160a01b038216600081815260036020908152604080832080546001019055848352600290915280822080546001600160a01b0319168417905551839291907fddf252ad1be2c89b69c2b068fc378daa952ba7f163c4a11628f55a4df523b3ef908290a45050565b6114fb848484611031565b61150784848484611789565b610c4a5760405162461bcd60e51b815260206004820152603260248201527f4552433732313a207472616e7366657220746f206e6f6e20455243373231526560448201527f63656976657220696d706c656d656e7465720000000000000000000000000000606482015260840161059d565b6060600e805461046390611f58565b60606000611595836118e0565b600101905060008167ffffffffffffffff8111156115b5576115b5611d88565b6040519080825280601f01601f1916602001820160405280156115df576020820181803683370190505b5090508181016020015b600019017f3031323334353637383961626364656600000000000000000000000000000000600a86061a8153600a85049450846115e957509392505050565b60006001600160e01b0319821663780e9d6360e01b148061044e575061044e826119c2565b60018111156116c45760405162461bcd60e51b815260206004820152603560248201527f455243373231456e756d657261626c653a20636f6e736563757469766520747260448201527f616e7366657273206e6f7420737570706f727465640000000000000000000000606482015260840161059d565b816001600160a01b0385166117205761171b81600880546000838152600960205260408120829055600182018355919091527ff3f7a9fe364faab93b216da50a3214154f22a0a2b415b23a84c8169e8b636ee30155565b611743565b836001600160a01b0316856001600160a01b031614611743576117438582611a5d565b6001600160a01b03841661175f5761175a81611afa565b611782565b846001600160a01b0316846001600160a01b031614611782576117828482611ba9565b5050505050565b60006001600160a01b0384163b156118d557604051630a85bd0160e11b81526001600160a01b0385169063150b7a02906117cd903390899088908890600401612134565b6020604051808303816000875af1925050508015611808575060408051601f3d908101601f1916820190925261180591810190612170565b60015b6118bb573d808015611836576040519150601f19603f3d011682016040523d82523d6000602084013e61183b565b606091505b5080516000036118b35760405162461bcd60e51b815260206004820152603260248201527f4552433732313a207472616e7366657220746f206e6f6e20455243373231526560448201527f63656976657220696d706c656d656e7465720000000000000000000000000000606482015260840161059d565b805181602001fd5b6001600160e01b031916630a85bd0160e11b149050611029565b506001949350505050565b6000807a184f03e93ff9f4daa797ed6e38ed64bf6a1f0100000000000000008310611929577a184f03e93ff9f4daa797ed6e38ed64bf6a1f010000000000000000830492506040015b6d04ee2d6d415b85acef81000000008310611955576d04ee2d6d415b85acef8100000000830492506020015b662386f26fc10000831061197357662386f26fc10000830492506010015b6305f5e100831061198b576305f5e100830492506008015b612710831061199f57612710830492506004015b606483106119b1576064830492506002015b600a831061044e5760010192915050565b60006001600160e01b031982167f80ac58cd000000000000000000000000000000000000000000000000000000001480611a2557506001600160e01b031982167f5b5e139f00000000000000000000000000000000000000000000000000000000145b8061044e57507f01ffc9a7000000000000000000000000000000000000000000000000000000006001600160e01b031983161461044e565b60006001611a6a8461096b565b611a74919061218d565b600083815260076020526040902054909150808214611ac7576001600160a01b03841660009081526006602090815260408083208584528252808320548484528184208190558352600790915290208190555b5060009182526007602090815260408084208490556001600160a01b039094168352600681528383209183525290812055565b600854600090611b0c9060019061218d565b60008381526009602052604081205460088054939450909284908110611b3457611b34611fe1565b906000526020600020015490508060088381548110611b5557611b55611fe1565b6000918252602080832090910192909255828152600990915260408082208490558582528120556008805480611b8d57611b8d6121a0565b6001900381819060005260206000200160009055905550505050565b6000611bb48361096b565b6001600160a01b039093166000908152600660209081526040808320868452825280832085905593825260079052919091209190915550565b6001600160e01b031981168114610d4457600080fd5b600060208284031215611c1557600080fd5b8135610cb081611bed565b60005b83811015611c3b578181015183820152602001611c23565b50506000910152565b60008151808452611c5c816020860160208601611c20565b601f01601f19169290920160200192915050565b602081526000610cb06020830184611c44565b600060208284031215611c9557600080fd5b5035919050565b80356001600160a01b0381168114611cb357600080fd5b919050565b60008060408385031215611ccb57600080fd5b611cd483611c9c565b946020939093013593505050565b60008060408385031215611cf557600080fd5b611cfe83611c9c565b915060208301356bffffffffffffffffffffffff81168114611d1f57600080fd5b809150509250929050565b600080600060608486031215611d3f57600080fd5b611d4884611c9c565b9250611d5660208501611c9c565b9150604084013590509250925092565b60008060408385031215611d7957600080fd5b50508035926020909101359150565b634e487b7160e01b600052604160045260246000fd5b600067ffffffffffffffff80841115611db957611db9611d88565b604051601f8501601f19908116603f01168101908282118183101715611de157611de1611d88565b81604052809350858152868686011115611dfa57600080fd5b858560208301376000602087830101525050509392505050565b600060208284031215611e2657600080fd5b813567ffffffffffffffff811115611e3d57600080fd5b8201601f81018413611e4e57600080fd5b61102984823560208401611d9e565b600060208284031215611e6f57600080fd5b610cb082611c9c565b60008060408385031215611e8b57600080fd5b611e9483611c9c565b915060208301358015158114611d1f57600080fd5b60008060008060808587031215611ebf57600080fd5b611ec885611c9c565b9350611ed660208601611c9c565b925060408501359150606085013567ffffffffffffffff811115611ef957600080fd5b8501601f81018713611f0a57600080fd5b611f1987823560208401611d9e565b91505092959194509250565b60008060408385031215611f3857600080fd5b611f4183611c9c565b9150611f4f60208401611c9c565b90509250929050565b600181811c90821680611f6c57607f821691505b602082108103611f8c57634e487b7160e01b600052602260045260246000fd5b50919050565b634e487b7160e01b600052601160045260246000fd5b808202811582820484141761044e5761044e611f92565b600082611fdc57634e487b7160e01b600052601260045260246000fd5b500490565b634e487b7160e01b600052603260045260246000fd5b601f82111561063e57600081815260208120601f850160051c8101602086101561201e5750805b601f850160051c820191505b8181101561203d5782815560010161202a565b505050505050565b815167ffffffffffffffff81111561205f5761205f611d88565b6120738161206d8454611f58565b84611ff7565b602080601f8311600181146120a857600084156120905750858301515b600019600386901b1c1916600185901b17855561203d565b600085815260208120601f198616915b828110156120d7578886015182559484019460019091019084016120b8565b50858210156120f55787850151600019600388901b60f8161c191681555b5050505050600190811b01905550565b60008351612117818460208801611c20565b83519083019061212b818360208801611c20565b01949350505050565b60006001600160a01b038087168352808616602084015250836040830152608060608301526121666080830184611c44565b9695505050505050565b60006020828403121561218257600080fd5b8151610cb081611bed565b8181038181111561044e5761044e611f92565b634e487b7160e01b600052603160045260246000fdfea2646970667358221220967ade916b059803947516353d2524bb5356470bfcd3529baafb671d0e37a9fb64736f6c6343000811003368747470733a2f2f62616679626569636e6f786a6f726179667832653375646f3767626269326162366a36626463337969347668627262706b7a37667a7169696d64752e697066732e6e667473746f726167652e6c696e6b2f",
    "linkReferences": {}
  },
  "methodIdentifiers": {
    "MAX_ID()": "17bac052",
    "approve(address,uint256)": "095ea7b3",
    "balanceOf(address)": "70a08231",
    "baseUri()": "9abc8320",
    "distributor()": "bfe10928",
    "getApproved(uint256)": "081812fc",
    "isApprovedForAll(address,address)": "e985e9c5",
    "mintFromDistributor(address,uint256)": "b22d3b35",
    "name()": "06fdde03",
    "owner()": "8da5cb5b",
    "ownerOf(uint256)": "6352211e",
    "renounceOwnership()": "715018a6",
    "royaltyInfo(uint256,uint256)": "2a55205a",
    "safeTransferFrom(address,address,uint256)": "42842e0e",
    "safeTransferFrom(address,address,uint256,bytes)": "b88d4fde",
    "setApprovalForAll(address,bool)": "a22cb465",
    "setBaseURI(string)": "55f804b3",
    "setDistributor(address)": "75619ab5",
    "supportsInterface(bytes4)": "01ffc9a7",
    "symbol()": "95d89b41",
    "tokenByIndex(uint256)": "4f6ccce7",
    "tokenOfOwnerByIndex(address,uint256)": "2f745c59",
    "tokenURI(uint256)": "c87b56dd",
    "totalSupply()": "18160ddd",
    "transferFrom(address,address,uint256)": "23b872dd",
    "transferOwnership(address)": "f2fde38b",
    "updateRoyalties(address,uint96)": "1129368c"
  },
  "id": 35
}