{
  "abi": [
    {
      "inputs": [],
      "stateMutability": "nonpayable",
      "type": "constructor"
    },
    {
      "anonymous": false,
      "inputs": [
        {
          "indexed": true,
          "internalType": "address",
          "name": "previousOwner",
          "type": "address"
        },
        {
          "indexed": true,
          "internalType": "address",
          "name": "newOwner",
          "type": "address"
        }
      ],
      "name": "OwnershipTransferred",
      "type": "event"
    },
    {
      "inputs": [
        {
          "internalType": "address",
          "name": "owner",
          "type": "address"
        }
      ],
      "name": "_isListed",
      "outputs": [
        {
          "internalType": "bool",
          "name": "",
          "type": "bool"
        }
      ],
      "stateMutability": "view",
      "type": "function"
    },
    {
      "inputs": [
        {
          "internalType": "bytes",
          "name": "recipients",
          "type": "bytes"
        }
      ],
      "name": "loadPtr",
      "outputs": [],
      "stateMutability": "nonpayable",
      "type": "function"
    },
    {
      "inputs": [],
      "name": "owner",
      "outputs": [
        {
          "internalType": "address",
          "name": "",
          "type": "address"
        }
      ],
      "stateMutability": "view",
      "type": "function"
    },
    {
      "inputs": [],
      "name": "renounceOwnership",
      "outputs": [],
      "stateMutability": "nonpayable",
      "type": "function"
    },
    {
      "inputs": [
        {
          "internalType": "address",
          "name": "newOwner",
          "type": "address"
        }
      ],
      "name": "transferOwnership",
      "outputs": [],
      "stateMutability": "nonpayable",
      "type": "function"
    }
  ],
  "bytecode": {
    "object": "0x608060405234801561001057600080fd5b5061001a3361009f565b46611e140361009a57604051632210724360e11b815233600482015273ecf044c5b4b867cfda001101c617ecd347095b4490634420e486906024016020604051808303816000875af1158015610074573d6000803e3d6000fd5b505050506040513d601f19601f8201168201806040525081019061009891906100ef565b505b610108565b600080546001600160a01b038381166001600160a01b0319831681178455604051919092169283917f8be0079c531659141344cd1fd0a4f28419497f9722a3daafe3b4186f6b6457e09190a35050565b60006020828403121561010157600080fd5b5051919050565b610a43806101176000396000f3fe608060405234801561001057600080fd5b50600436106100575760003560e01c8063715018a61461005c5780638da5cb5b146100665780638e98846014610086578063ed7bd30114610099578063f2fde38b146100bc575b600080fd5b6100646100cf565b005b6000546040516001600160a01b0390911681526020015b60405180910390f35b61006461009436600461084c565b6100e3565b6100ac6100a73660046108be565b610253565b604051901515815260200161007d565b6100646100ca3660046108be565b6103f3565b6100d761046c565b6100e160006104c6565b565b6100eb61046c565b6001546001600160a01b0316158061010c57506002546001600160a01b0316155b61014e5760405162461bcd60e51b815260206004820152600e60248201526d1053149150511657d313d051115160921b60448201526064015b60405180910390fd5b6001546001600160a01b03166101c15761019d82828080601f01602080910402602001604051908101604052809392919081815260200183838082843760009201919091525061051692505050565b600180546001600160a01b0319166001600160a01b03929092169190911790555050565b6101cf6014600083856108e7565b6101d891610911565b600380546001600160a01b03191660609290921c919091179055604080516020601f840181900481028201810190925282815261022f91849084908190840183828082843760009201919091525061051692505050565b600280546001600160a01b0319166001600160a01b03929092169190911790555050565b6003546000906001906001600160a01b03908116908416101561032f57600061027a6105bb565b90506000600261028a838561095c565b6102949190610975565b90505b8183116103285760006102a9826105fd565b9050856001600160a01b0316816001600160a01b0316036102d05750600195945050505050565b856001600160a01b0316816001600160a01b031610156102fc576102f582600161095c565b935061030a565b610307600183610997565b92505b6002610316848661095c565b6103209190610975565b915050610297565b50506103ea565b60006103396106b0565b905060006002610349838561095c565b6103539190610975565b90505b8183116103e7576000610368826106e5565b9050856001600160a01b0316816001600160a01b03160361038f5750600195945050505050565b856001600160a01b0316816001600160a01b031610156103bb576103b482600161095c565b93506103c9565b6103c6600183610997565b92505b60026103d5848661095c565b6103df9190610975565b915050610356565b50505b50600092915050565b6103fb61046c565b6001600160a01b0381166104605760405162461bcd60e51b815260206004820152602660248201527f4f776e61626c653a206e6577206f776e657220697320746865207a65726f206160448201526564647265737360d01b6064820152608401610145565b610469816104c6565b50565b6000546001600160a01b031633146100e15760405162461bcd60e51b815260206004820181905260248201527f4f776e61626c653a2063616c6c6572206973206e6f7420746865206f776e65726044820152606401610145565b600080546001600160a01b038381166001600160a01b0319831681178455604051919092169283917f8be0079c531659141344cd1fd0a4f28419497f9722a3daafe3b4186f6b6457e09190a35050565b6000808260405160200161052a91906109da565b604051602081830303815290604052905060008160405160200161054e91906109ed565b60405160208183030381529060405290508051602082016000f092506001600160a01b0383166105b45760405162461bcd60e51b81526020600482015260116024820152701111541313d65351539517d19052531151607a1b6044820152606401610145565b5050919050565b6001546000906001600160a01b03166105d45750600090565b600180546014916105ee916001600160a01b03163b610997565b6105f89190610975565b905090565b60008082116106385760405162461bcd60e51b815260206004820152600760248201526616915493d7d25160ca1b6044820152606401610145565b6106406105bb565b82111561067c5760405162461bcd60e51b815260206004820152600a6024820152691393d517d3525395115160b21b6044820152606401610145565b600154601460001984018102916106a9916106a4916001600160a01b03169084908101610788565b61080a565b9392505050565b6002546000906001600160a01b03166106c95750600090565b6002546014906105ee906001906001600160a01b03163b610997565b60008082116107205760405162461bcd60e51b815260206004820152600760248201526616915493d7d25160ca1b6044820152606401610145565b6107286106b0565b8211156107645760405162461bcd60e51b815260206004820152600a6024820152691393d517d3525395115160b21b6044820152606401610145565b600254601460001984018102916106a9916106a4916001600160a01b031690849081015b606061079560018461095c565b92506107a260018361095c565b915081846001600160a01b03163b10156107ee5760405162461bcd60e51b815260206004820152600d60248201526c4f55545f4f465f424f554e445360981b6044820152606401610145565b61080284846107fd8186610997565b610829565b949350505050565b6000815160141461081a57600080fd5b5060200151600160601b900490565b60408051603f8301601f19168101909152818152818360208301863c9392505050565b6000806020838503121561085f57600080fd5b823567ffffffffffffffff8082111561087757600080fd5b818501915085601f83011261088b57600080fd5b81358181111561089a57600080fd5b8660208285010111156108ac57600080fd5b60209290920196919550909350505050565b6000602082840312156108d057600080fd5b81356001600160a01b03811681146106a957600080fd5b600080858511156108f757600080fd5b8386111561090457600080fd5b5050820193919092039150565b6bffffffffffffffffffffffff19813581811691601485101561093e5780818660140360031b1b83161692505b505092915050565b634e487b7160e01b600052601160045260246000fd5b8082018082111561096f5761096f610946565b92915050565b60008261099257634e487b7160e01b600052601260045260246000fd5b500490565b8181038181111561096f5761096f610946565b6000815160005b818110156109cb57602081850181015186830152016109b1565b50600093019283525090919050565b6000815260006106a960018301846109aa565b6a600b5981380380925939f360a81b815260006106a9600b8301846109aa56fea26469706673582212208e4418a128cae28a1e6eb0844f2089eaee087b05d35a88161afa1ffa0973832164736f6c63430008110033",
    "linkReferences": {}
  },
  "methodIdentifiers": {
    "_isListed(address)": "ed7bd301",
    "loadPtr(bytes)": "8e988460",
    "owner()": "8da5cb5b",
    "renounceOwnership()": "715018a6",
    "transferOwnership(address)": "f2fde38b"
  },
  "id": 39
}