{
  "abi": [
    {
      "inputs": [
        {
          "internalType": "address",
          "name": "_lostGhouls",
          "type": "address"
        },
        {
          "internalType": "address",
          "name": "_ampliceGhouls",
          "type": "address"
        },
        {
          "internalType": "address",
          "name": "_cantofornians",
          "type": "address"
        },
        {
          "internalType": "address",
          "name": "_pepperHeads",
          "type": "address"
        },
        {
          "internalType": "address",
          "name": "_thresholdGhouls",
          "type": "address"
        }
      ],
      "stateMutability": "nonpayable",
      "type": "constructor"
    },
    {
      "anonymous": false,
      "inputs": [
        {
          "indexed": true,
          "internalType": "address",
          "name": "previousOwner",
          "type": "address"
        },
        {
          "indexed": true,
          "internalType": "address",
          "name": "newOwner",
          "type": "address"
        }
      ],
      "name": "OwnershipTransferred",
      "type": "event"
    },
    {
      "inputs": [],
      "name": "FEE_RECEIVER",
      "outputs": [
        {
          "internalType": "address",
          "name": "",
          "type": "address"
        }
      ],
      "stateMutability": "view",
      "type": "function"
    },
    {
      "inputs": [],
      "name": "MAX_MINT",
      "outputs": [
        {
          "internalType": "uint256",
          "name": "",
          "type": "uint256"
        }
      ],
      "stateMutability": "view",
      "type": "function"
    },
    {
      "inputs": [],
      "name": "MINT_COST",
      "outputs": [
        {
          "internalType": "uint256",
          "name": "",
          "type": "uint256"
        }
      ],
      "stateMutability": "view",
      "type": "function"
    },
    {
      "inputs": [],
      "name": "ampliceGhouls",
      "outputs": [
        {
          "internalType": "contract IERC721",
          "name": "",
          "type": "address"
        }
      ],
      "stateMutability": "view",
      "type": "function"
    },
    {
      "inputs": [
        {
          "internalType": "uint256",
          "name": "id",
          "type": "uint256"
        }
      ],
      "name": "ampliceMint",
      "outputs": [],
      "stateMutability": "payable",
      "type": "function"
    },
    {
      "inputs": [
        {
          "internalType": "uint256",
          "name": "id",
          "type": "uint256"
        }
      ],
      "name": "cantofornianMint",
      "outputs": [],
      "stateMutability": "payable",
      "type": "function"
    },
    {
      "inputs": [],
      "name": "cantofornians",
      "outputs": [
        {
          "internalType": "contract IERC721",
          "name": "",
          "type": "address"
        }
      ],
      "stateMutability": "view",
      "type": "function"
    },
    {
      "inputs": [
        {
          "internalType": "uint256",
          "name": "",
          "type": "uint256"
        }
      ],
      "name": "earlyMinted",
      "outputs": [
        {
          "internalType": "bool",
          "name": "amplices",
          "type": "bool"
        },
        {
          "internalType": "bool",
          "name": "cantofornians",
          "type": "bool"
        },
        {
          "internalType": "bool",
          "name": "pepperHeads",
          "type": "bool"
        }
      ],
      "stateMutability": "view",
      "type": "function"
    },
    {
      "inputs": [
        {
          "internalType": "address",
          "name": "",
          "type": "address"
        }
      ],
      "name": "earlyMintedByThresholds",
      "outputs": [
        {
          "internalType": "bool",
          "name": "",
          "type": "bool"
        }
      ],
      "stateMutability": "view",
      "type": "function"
    },
    {
      "inputs": [],
      "name": "forceWithdraw",
      "outputs": [],
      "stateMutability": "nonpayable",
      "type": "function"
    },
    {
      "inputs": [
        {
          "internalType": "uint256",
          "name": "",
          "type": "uint256"
        }
      ],
      "name": "ids",
      "outputs": [
        {
          "internalType": "uint16",
          "name": "",
          "type": "uint16"
        }
      ],
      "stateMutability": "view",
      "type": "function"
    },
    {
      "inputs": [],
      "name": "lostGhouls",
      "outputs": [
        {
          "internalType": "contract THE_LOST_GHOULS",
          "name": "",
          "type": "address"
        }
      ],
      "stateMutability": "view",
      "type": "function"
    },
    {
      "inputs": [
        {
          "internalType": "address",
          "name": "",
          "type": "address"
        }
      ],
      "name": "mintedByAddress",
      "outputs": [
        {
          "internalType": "uint8",
          "name": "",
          "type": "uint8"
        }
      ],
      "stateMutability": "view",
      "type": "function"
    },
    {
      "inputs": [],
      "name": "openPublic",
      "outputs": [],
      "stateMutability": "nonpayable",
      "type": "function"
    },
    {
      "inputs": [],
      "name": "owner",
      "outputs": [
        {
          "internalType": "address",
          "name": "",
          "type": "address"
        }
      ],
      "stateMutability": "view",
      "type": "function"
    },
    {
      "inputs": [],
      "name": "pepperHeads",
      "outputs": [
        {
          "internalType": "contract IERC721",
          "name": "",
          "type": "address"
        }
      ],
      "stateMutability": "view",
      "type": "function"
    },
    {
      "inputs": [
        {
          "internalType": "uint256",
          "name": "id",
          "type": "uint256"
        }
      ],
      "name": "pepperHeadsMint",
      "outputs": [],
      "stateMutability": "payable",
      "type": "function"
    },
    {
      "inputs": [
        {
          "internalType": "uint8",
          "name": "amt",
          "type": "uint8"
        }
      ],
      "name": "publicMint",
      "outputs": [],
      "stateMutability": "payable",
      "type": "function"
    },
    {
      "inputs": [],
      "name": "publicSaleOpen",
      "outputs": [
        {
          "internalType": "bool",
          "name": "",
          "type": "bool"
        }
      ],
      "stateMutability": "view",
      "type": "function"
    },
    {
      "inputs": [],
      "name": "renounceOwnership",
      "outputs": [],
      "stateMutability": "nonpayable",
      "type": "function"
    },
    {
      "inputs": [
        {
          "internalType": "uint256",
          "name": "newEarlyMint",
          "type": "uint256"
        },
        {
          "internalType": "uint256",
          "name": "newPublicMint",
          "type": "uint256"
        }
      ],
      "name": "setMintTimes",
      "outputs": [],
      "stateMutability": "nonpayable",
      "type": "function"
    },
    {
      "inputs": [],
      "name": "thresholdGhouls",
      "outputs": [
        {
          "internalType": "contract ThresholdGhouls",
          "name": "",
          "type": "address"
        }
      ],
      "stateMutability": "view",
      "type": "function"
    },
    {
      "inputs": [],
      "name": "thresholdMint",
      "outputs": [],
      "stateMutability": "payable",
      "type": "function"
    },
    {
      "inputs": [
        {
          "internalType": "address",
          "name": "newOwner",
          "type": "address"
        }
      ],
      "name": "transferOwnership",
      "outputs": [],
      "stateMutability": "nonpayable",
      "type": "function"
    }
  ],
  "bytecode": {
    "object": "0x610120604052635e366d30600155635e3910306002553480156200002257600080fd5b506040516200198238038062001982833981016040819052620000459162000174565b620000503362000107565b6001600160a01b038086166101005284811660805283811660a05282811660c052811660e05246611e1403620000fc57604051630981022760e31b815261028a600482015273ecf044c5b4b867cfda001101c617ecd347095b4490634c081138906024016020604051808303816000875af1158015620000d4573d6000803e3d6000fd5b505050506040513d601f19601f82011682018060405250810190620000fa9190620001e4565b505b5050505050620001fe565b600080546001600160a01b038381166001600160a01b0319831681178455604051919092169283917f8be0079c531659141344cd1fd0a4f28419497f9722a3daafe3b4186f6b6457e09190a35050565b80516001600160a01b03811681146200016f57600080fd5b919050565b600080600080600060a086880312156200018d57600080fd5b620001988662000157565b9450620001a86020870162000157565b9350620001b86040870162000157565b9250620001c86060870162000157565b9150620001d86080870162000157565b90509295509295909350565b600060208284031215620001f757600080fd5b5051919050565b60805160a05160c05160e051610100516117006200028260003960008181610227015281816106ef0152818161092f01528181610bf401528181610dd30152610fa80152600081816101620152610e3d0152600081816103eb01526105860152600081816103660152610c720152600081816101b30152610a6001526117006000f3fe60806040526004361061014b5760003560e01c80638da5cb5b116100b6578063c662e4811161006f578063c662e48114610428578063d3e78e4d14610451578063f0292a0314610479578063f2fde38b1461048f578063f9e23799146104af578063fac333ac146104d057600080fd5b80638da5cb5b146103885780639001859a146103a6578063980846ce146103b9578063a54cc5d5146103d9578063adeded381461040d578063c1efff661461042057600080fd5b806367c624451161010857806367c62445146102a2578063715018a6146103045780637be80b391461031957806382e6099b1461032e578063858e83b51461034157806389a90f6c1461035457600080fd5b806304c5310314610150578063176fe416146101a15780632358db9b146101d55780633c8d7da5146102155780633ca63f2c146102495780633fc800061461028b575b600080fd5b34801561015c57600080fd5b506101847f000000000000000000000000000000000000000000000000000000000000000081565b6040516001600160a01b0390911681526020015b60405180910390f35b3480156101ad57600080fd5b506101847f000000000000000000000000000000000000000000000000000000000000000081565b3480156101e157600080fd5b506102056101f0366004611465565b60046020526000908152604090205460ff1681565b6040519015158152602001610198565b34801561022157600080fd5b506101847f000000000000000000000000000000000000000000000000000000000000000081565b34801561025557600080fd5b50610279610264366004611465565b60056020526000908152604090205460ff1681565b60405160ff9091168152602001610198565b34801561029757600080fd5b506102a0610503565b005b3480156102ae57600080fd5b506102e56102bd366004611489565b60036020526000908152604090205460ff808216916101008104821691620100009091041683565b6040805193151584529115156020840152151590820152606001610198565b34801561031057600080fd5b506102a0610520565b34801561032557600080fd5b506102a0610534565b6102a061033c366004611489565b610545565b6102a061034f3660046114a2565b610789565b34801561036057600080fd5b506101847f000000000000000000000000000000000000000000000000000000000000000081565b34801561039457600080fd5b506000546001600160a01b0316610184565b6102a06103b4366004611489565b6109d6565b3480156103c557600080fd5b506102a06103d43660046114c5565b610c27565b3480156103e557600080fd5b506101847f000000000000000000000000000000000000000000000000000000000000000081565b6102a061041b366004611489565b610c3a565b6102a0610e06565b34801561043457600080fd5b506104436606010bc9aba00081565b604051908152602001610198565b34801561045d57600080fd5b50610184730152de0f97da0e2c00f9c228a9bec048981646c981565b34801561048557600080fd5b506104436101a481565b34801561049b57600080fd5b506102a06104aa366004611465565b611041565b3480156104bb57600080fd5b5060005461020590600160a01b900460ff1681565b3480156104dc57600080fd5b506104f06104eb366004611489565b6110ba565b60405161ffff9091168152602001610198565b61050b6110e9565b6000805460ff60a01b1916600160a01b179055565b6105286110e9565b6105326000611143565b565b61053c6110e9565b61053247611193565b6001805442116105705760405162461bcd60e51b8152600401610567906114e7565b60405180910390fd5b6040516331a9108f60e11b8152600481018390527f00000000000000000000000000000000000000000000000000000000000000006001600160a01b031690636352211e90602401602060405180830381865afa1580156105d5573d6000803e3d6000fd5b505050506040513d601f19601f820116820180604052508101906105f99190611514565b6001600160a01b0316336001600160a01b0316146106295760405162461bcd60e51b815260040161056790611531565b60008281526003602052604090205462010000900460ff161561065e5760405162461bcd60e51b815260040161056790611561565b6606010bc9aba00034146106845760405162461bcd60e51b81526004016105679061158a565b61068d34611193565b336000908152600560205260408120805460ff16916106ab836115ce565b825460ff9182166101009390930a9283029190920219909116179055506000828152600360205260409020805462ff00001916620100001790556001600160a01b037f00000000000000000000000000000000000000000000000000000000000000001663b22d3b353361072761072286836115ed565b6111f7565b6040516001600160e01b031960e085901b1681526001600160a01b0390921660048301526024820152604401600060405180830381600087803b15801561076d57600080fd5b505af1158015610781573d6000803e3d6000fd5b505050505050565b60006002544211806107a45750600054600160a01b900460ff165b6107e75760405162461bcd60e51b8152602060048201526014602482015273383ab13634b19036b4b73a103737ba1037b832b760611b6044820152606401610567565b6000546001600160a01b031633146109175760058260ff16111561083b5760405162461bcd60e51b815260206004820152600b60248201526a4d61782035206d696e747360a81b6044820152606401610567565b3360009081526005602081905260409091205461085c90849060ff1661160a565b60ff1611156108a15760405162461bcd60e51b81526020600482015260116024820152704d6178203520706572206164647265737360781b6044820152606401610567565b6108b56606010bc9aba00060ff84166115ed565b34146108d35760405162461bcd60e51b81526004016105679061158a565b6108dc34611193565b33600090815260056020526040812080548492906108fe90849060ff1661160a565b92506101000a81548160ff021916908360ff1602179055505b60005b8260ff168110156109d1576001600160a01b037f00000000000000000000000000000000000000000000000000000000000000001663b22d3b353361096261072285836115ed565b6040516001600160e01b031960e085901b1681526001600160a01b0390921660048301526024820152604401600060405180830381600087803b1580156109a857600080fd5b505af11580156109bc573d6000803e3d6000fd5b50505050806109ca90611623565b905061091a565b505050565b6001805442116109f85760405162461bcd60e51b8152600401610567906114e7565b6000546064600160a81b90910460ff1610610a4a5760405162461bcd60e51b81526020600482015260126024820152712a37b79036b0b73c9030b6b83634b1b2b99760711b6044820152606401610567565b6040516331a9108f60e11b8152600481018390527f00000000000000000000000000000000000000000000000000000000000000006001600160a01b031690636352211e90602401602060405180830381865afa158015610aaf573d6000803e3d6000fd5b505050506040513d601f19601f82011682018060405250810190610ad39190611514565b6001600160a01b0316336001600160a01b031614610b035760405162461bcd60e51b815260040161056790611531565b60008281526003602052604090205460ff1615610b325760405162461bcd60e51b815260040161056790611561565b6606010bc9aba0003414610b585760405162461bcd60e51b81526004016105679061158a565b610b6134611193565b60008054600160a81b900460ff16906015610b7b836115ce565b82546101009290920a60ff81810219909316918316021790915533600090815260056020526040812080549092169250610bb4836115ce565b825460ff9182166101009390930a9283029190920219909116179055506000828152600360205260409020805460ff191660011790556001600160a01b037f00000000000000000000000000000000000000000000000000000000000000001663b22d3b353361072761072286836115ed565b610c2f6110e9565b600191909155600255565b600180544211610c5c5760405162461bcd60e51b8152600401610567906114e7565b6040516331a9108f60e11b8152600481018390527f00000000000000000000000000000000000000000000000000000000000000006001600160a01b031690636352211e90602401602060405180830381865afa158015610cc1573d6000803e3d6000fd5b505050506040513d601f19601f82011682018060405250810190610ce59190611514565b6001600160a01b0316336001600160a01b031614610d155760405162461bcd60e51b815260040161056790611531565b600082815260036020526040902054610100900460ff1615610d495760405162461bcd60e51b815260040161056790611561565b6606010bc9aba0003414610d6f5760405162461bcd60e51b81526004016105679061158a565b610d7834611193565b336000908152600560205260408120805460ff1691610d96836115ce565b825460ff91821661010093840a90810292021916179091556000848152600360205260409020805461ff0019169091179055506001600160a01b037f00000000000000000000000000000000000000000000000000000000000000001663b22d3b353361072761072286836115ed565b600180544211610e285760405162461bcd60e51b8152600401610567906114e7565b60405163ed7bd30160e01b81523360048201527f00000000000000000000000000000000000000000000000000000000000000006001600160a01b03169063ed7bd30190602401602060405180830381865afa158015610e8c573d6000803e3d6000fd5b505050506040513d601f19601f82011682018060405250810190610eb0919061163c565b610ef25760405162461bcd60e51b815260206004820152601360248201527243616c6c6572206e6f7420656c696769626c6560681b6044820152606401610567565b3360009081526004602052604090205460ff1615610f225760405162461bcd60e51b815260040161056790611561565b6606010bc9aba0003414610f485760405162461bcd60e51b81526004016105679061158a565b610f5134611193565b336000908152600560205260408120805460ff1691610f6f836115ce565b825460ff9182166101009390930a928302919092021990911617905550336000818152600460205260409020805460ff191660011790557f00000000000000000000000000000000000000000000000000000000000000006001600160a01b03169063b22d3b3590610fe0816111f7565b6040516001600160e01b031960e085901b1681526001600160a01b0390921660048301526024820152604401600060405180830381600087803b15801561102657600080fd5b505af115801561103a573d6000803e3d6000fd5b5050505050565b6110496110e9565b6001600160a01b0381166110ae5760405162461bcd60e51b815260206004820152602660248201527f4f776e61626c653a206e6577206f776e657220697320746865207a65726f206160448201526564647265737360d01b6064820152608401610567565b6110b781611143565b50565b6006816101a481106110cb57600080fd5b60109182820401919006600202915054906101000a900461ffff1681565b6000546001600160a01b031633146105325760405162461bcd60e51b815260206004820181905260248201527f4f776e61626c653a2063616c6c6572206973206e6f7420746865206f776e65726044820152606401610567565b600080546001600160a01b038381166001600160a01b0319831681178455604051919092169283917f8be0079c531659141344cd1fd0a4f28419497f9722a3daafe3b4186f6b6457e09190a35050565b6000730152de0f97da0e2c00f9c228a9bec048981646c98180808086855af19150816109d15760405162461bcd60e51b815260206004820152601360248201527211551217d514905394d1915497d19052531151606a1b6044820152606401610567565b60218054600091829161ffff16908261120f8361165e565b91906101000a81548161ffff021916908361ffff16021790555061ffff166101a461123a919061167f565b90506000811161127a5760405162461bcd60e51b815260206004820152600b60248201526a135a5b9d0818db1bdcd95960aa1b6044820152606401610567565b6000818442604051602001611299929190918252602082015260400190565b6040516020818303038152906040528051906020012060001c6112bc9190611692565b90506006816101a481106112d2576112d26116b4565b601091828204019190066002029054906101000a900461ffff1661ffff166000036112fd5780611330565b6006816101a48110611311576113116116b4565b601091828204019190066002029054906101000a900461ffff1661ffff165b9250600661133f60018461167f565b6101a48110611350576113506116b4565b601081049190910154600f9091166002026101000a900461ffff16156113b157600661137d60018461167f565b6101a4811061138e5761138e6116b4565b601091828204019190066002029054906101000a900461ffff1661ffff166113bc565b6113bc60018361167f565b6006826101a481106113d0576113d06116b4565b601091828204019190066002026101000a81548161ffff021916908361ffff16021790555060006006600184611406919061167f565b6101a48110611417576114176116b4565b601091828204019190066002026101000a81548161ffff021916908361ffff160217905550828061144790611623565b95945050505050565b6001600160a01b03811681146110b757600080fd5b60006020828403121561147757600080fd5b813561148281611450565b9392505050565b60006020828403121561149b57600080fd5b5035919050565b6000602082840312156114b457600080fd5b813560ff8116811461148257600080fd5b600080604083850312156114d857600080fd5b50508035926020909101359150565b60208082526013908201527232b0b9363c9036b4b73a103737ba1037b832b760691b604082015260600190565b60006020828403121561152657600080fd5b815161148281611450565b60208082526016908201527510d85b1b195c881b9bdd081bdddb995c881bd988125960521b604082015260600190565b6020808252600f908201526e105b1c9958591e4818db185a5b5959608a1b604082015260600190565b602080825260149082015273125b9cdd59999a58da595b9d081c185e5b595b9d60621b604082015260600190565b634e487b7160e01b600052601160045260246000fd5b600060ff821660ff81036115e4576115e46115b8565b60010192915050565b8082028115828204841417611604576116046115b8565b92915050565b60ff8181168382160190811115611604576116046115b8565b600060018201611635576116356115b8565b5060010190565b60006020828403121561164e57600080fd5b8151801515811461148257600080fd5b600061ffff808316818103611675576116756115b8565b6001019392505050565b81810381811115611604576116046115b8565b6000826116af57634e487b7160e01b600052601260045260246000fd5b500690565b634e487b7160e01b600052603260045260246000fdfea26469706673582212202e4af7f965e6f69fe768c44dbe5702357e18a74f44ae03cb6f446dc7bed5952064736f6c63430008110033",
    "linkReferences": {}
  },
  "methodIdentifiers": {
    "FEE_RECEIVER()": "d3e78e4d",
    "MAX_MINT()": "f0292a03",
    "MINT_COST()": "c662e481",
    "ampliceGhouls()": "176fe416",
    "ampliceMint(uint256)": "9001859a",
    "cantofornianMint(uint256)": "adeded38",
    "cantofornians()": "89a90f6c",
    "earlyMinted(uint256)": "67c62445",
    "earlyMintedByThresholds(address)": "2358db9b",
    "forceWithdraw()": "7be80b39",
    "ids(uint256)": "fac333ac",
    "lostGhouls()": "3c8d7da5",
    "mintedByAddress(address)": "3ca63f2c",
    "openPublic()": "3fc80006",
    "owner()": "8da5cb5b",
    "pepperHeads()": "a54cc5d5",
    "pepperHeadsMint(uint256)": "82e6099b",
    "publicMint(uint8)": "858e83b5",
    "publicSaleOpen()": "f9e23799",
    "renounceOwnership()": "715018a6",
    "setMintTimes(uint256,uint256)": "980846ce",
    "thresholdGhouls()": "04c53103",
    "thresholdMint()": "c1efff66",
    "transferOwnership(address)": "f2fde38b"
  },
  "id": 30
}