{
  "abi": [
    {
      "inputs": [
        {
          "internalType": "string",
          "name": "_setBaseUri",
          "type": "string"
        }
      ],
      "stateMutability": "nonpayable",
      "type": "constructor"
    },
    {
      "anonymous": false,
      "inputs": [
        {
          "indexed": true,
          "internalType": "address",
          "name": "owner",
          "type": "address"
        },
        {
          "indexed": true,
          "internalType": "address",
          "name": "approved",
          "type": "address"
        },
        {
          "indexed": true,
          "internalType": "uint256",
          "name": "tokenId",
          "type": "uint256"
        }
      ],
      "name": "Approval",
      "type": "event"
    },
    {
      "anonymous": false,
      "inputs": [
        {
          "indexed": true,
          "internalType": "address",
          "name": "owner",
          "type": "address"
        },
        {
          "indexed": true,
          "internalType": "address",
          "name": "operator",
          "type": "address"
        },
        {
          "indexed": false,
          "internalType": "bool",
          "name": "approved",
          "type": "bool"
        }
      ],
      "name": "ApprovalForAll",
      "type": "event"
    },
    {
      "anonymous": false,
      "inputs": [
        {
          "indexed": true,
          "internalType": "address",
          "name": "previousOwner",
          "type": "address"
        },
        {
          "indexed": true,
          "internalType": "address",
          "name": "newOwner",
          "type": "address"
        }
      ],
      "name": "OwnershipTransferred",
      "type": "event"
    },
    {
      "anonymous": false,
      "inputs": [
        {
          "indexed": true,
          "internalType": "address",
          "name": "from",
          "type": "address"
        },
        {
          "indexed": true,
          "internalType": "address",
          "name": "to",
          "type": "address"
        },
        {
          "indexed": true,
          "internalType": "uint256",
          "name": "tokenId",
          "type": "uint256"
        }
      ],
      "name": "Transfer",
      "type": "event"
    },
    {
      "inputs": [],
      "name": "CSRID",
      "outputs": [
        {
          "internalType": "uint256",
          "name": "",
          "type": "uint256"
        }
      ],
      "stateMutability": "view",
      "type": "function"
    },
    {
      "inputs": [],
      "name": "MAX_ID",
      "outputs": [
        {
          "internalType": "uint256",
          "name": "",
          "type": "uint256"
        }
      ],
      "stateMutability": "view",
      "type": "function"
    },
    {
      "inputs": [
        {
          "internalType": "address",
          "name": "to",
          "type": "address"
        },
        {
          "internalType": "uint256",
          "name": "tokenId",
          "type": "uint256"
        }
      ],
      "name": "approve",
      "outputs": [],
      "stateMutability": "nonpayable",
      "type": "function"
    },
    {
      "inputs": [
        {
          "internalType": "address",
          "name": "owner",
          "type": "address"
        }
      ],
      "name": "balanceOf",
      "outputs": [
        {
          "internalType": "uint256",
          "name": "",
          "type": "uint256"
        }
      ],
      "stateMutability": "view",
      "type": "function"
    },
    {
      "inputs": [],
      "name": "baseUri",
      "outputs": [
        {
          "internalType": "string",
          "name": "",
          "type": "string"
        }
      ],
      "stateMutability": "view",
      "type": "function"
    },
    {
      "inputs": [],
      "name": "distributor",
      "outputs": [
        {
          "internalType": "address",
          "name": "",
          "type": "address"
        }
      ],
      "stateMutability": "view",
      "type": "function"
    },
    {
      "inputs": [
        {
          "internalType": "uint256",
          "name": "tokenId",
          "type": "uint256"
        }
      ],
      "name": "getApproved",
      "outputs": [
        {
          "internalType": "address",
          "name": "",
          "type": "address"
        }
      ],
      "stateMutability": "view",
      "type": "function"
    },
    {
      "inputs": [
        {
          "internalType": "address",
          "name": "owner",
          "type": "address"
        },
        {
          "internalType": "address",
          "name": "operator",
          "type": "address"
        }
      ],
      "name": "isApprovedForAll",
      "outputs": [
        {
          "internalType": "bool",
          "name": "",
          "type": "bool"
        }
      ],
      "stateMutability": "view",
      "type": "function"
    },
    {
      "inputs": [
        {
          "internalType": "address",
          "name": "to",
          "type": "address"
        },
        {
          "internalType": "uint256",
          "name": "id",
          "type": "uint256"
        }
      ],
      "name": "mintFromDistributor",
      "outputs": [],
      "stateMutability": "nonpayable",
      "type": "function"
    },
    {
      "inputs": [],
      "name": "name",
      "outputs": [
        {
          "internalType": "string",
          "name": "",
          "type": "string"
        }
      ],
      "stateMutability": "view",
      "type": "function"
    },
    {
      "inputs": [],
      "name": "owner",
      "outputs": [
        {
          "internalType": "address",
          "name": "",
          "type": "address"
        }
      ],
      "stateMutability": "view",
      "type": "function"
    },
    {
      "inputs": [
        {
          "internalType": "uint256",
          "name": "tokenId",
          "type": "uint256"
        }
      ],
      "name": "ownerOf",
      "outputs": [
        {
          "internalType": "address",
          "name": "",
          "type": "address"
        }
      ],
      "stateMutability": "view",
      "type": "function"
    },
    {
      "inputs": [],
      "name": "renounceOwnership",
      "outputs": [],
      "stateMutability": "nonpayable",
      "type": "function"
    },
    {
      "inputs": [
        {
          "internalType": "uint256",
          "name": "_tokenId",
          "type": "uint256"
        },
        {
          "internalType": "uint256",
          "name": "_salePrice",
          "type": "uint256"
        }
      ],
      "name": "royaltyInfo",
      "outputs": [
        {
          "internalType": "address",
          "name": "",
          "type": "address"
        },
        {
          "internalType": "uint256",
          "name": "",
          "type": "uint256"
        }
      ],
      "stateMutability": "view",
      "type": "function"
    },
    {
      "inputs": [
        {
          "internalType": "address",
          "name": "from",
          "type": "address"
        },
        {
          "internalType": "address",
          "name": "to",
          "type": "address"
        },
        {
          "internalType": "uint256",
          "name": "tokenId",
          "type": "uint256"
        }
      ],
      "name": "safeTransferFrom",
      "outputs": [],
      "stateMutability": "nonpayable",
      "type": "function"
    },
    {
      "inputs": [
        {
          "internalType": "address",
          "name": "from",
          "type": "address"
        },
        {
          "internalType": "address",
          "name": "to",
          "type": "address"
        },
        {
          "internalType": "uint256",
          "name": "tokenId",
          "type": "uint256"
        },
        {
          "internalType": "bytes",
          "name": "data",
          "type": "bytes"
        }
      ],
      "name": "safeTransferFrom",
      "outputs": [],
      "stateMutability": "nonpayable",
      "type": "function"
    },
    {
      "inputs": [
        {
          "internalType": "address",
          "name": "operator",
          "type": "address"
        },
        {
          "internalType": "bool",
          "name": "approved",
          "type": "bool"
        }
      ],
      "name": "setApprovalForAll",
      "outputs": [],
      "stateMutability": "nonpayable",
      "type": "function"
    },
    {
      "inputs": [
        {
          "internalType": "string",
          "name": "newBaseURI",
          "type": "string"
        }
      ],
      "name": "setBaseURI",
      "outputs": [],
      "stateMutability": "nonpayable",
      "type": "function"
    },
    {
      "inputs": [
        {
          "internalType": "address",
          "name": "newDistributor",
          "type": "address"
        }
      ],
      "name": "setDistributor",
      "outputs": [],
      "stateMutability": "nonpayable",
      "type": "function"
    },
    {
      "inputs": [
        {
          "internalType": "bytes4",
          "name": "interfaceId",
          "type": "bytes4"
        }
      ],
      "name": "supportsInterface",
      "outputs": [
        {
          "internalType": "bool",
          "name": "",
          "type": "bool"
        }
      ],
      "stateMutability": "view",
      "type": "function"
    },
    {
      "inputs": [],
      "name": "symbol",
      "outputs": [
        {
          "internalType": "string",
          "name": "",
          "type": "string"
        }
      ],
      "stateMutability": "view",
      "type": "function"
    },
    {
      "inputs": [
        {
          "internalType": "uint256",
          "name": "index",
          "type": "uint256"
        }
      ],
      "name": "tokenByIndex",
      "outputs": [
        {
          "internalType": "uint256",
          "name": "",
          "type": "uint256"
        }
      ],
      "stateMutability": "view",
      "type": "function"
    },
    {
      "inputs": [
        {
          "internalType": "address",
          "name": "owner",
          "type": "address"
        },
        {
          "internalType": "uint256",
          "name": "index",
          "type": "uint256"
        }
      ],
      "name": "tokenOfOwnerByIndex",
      "outputs": [
        {
          "internalType": "uint256",
          "name": "",
          "type": "uint256"
        }
      ],
      "stateMutability": "view",
      "type": "function"
    },
    {
      "inputs": [
        {
          "internalType": "uint256",
          "name": "tokenId",
          "type": "uint256"
        }
      ],
      "name": "tokenURI",
      "outputs": [
        {
          "internalType": "string",
          "name": "",
          "type": "string"
        }
      ],
      "stateMutability": "view",
      "type": "function"
    },
    {
      "inputs": [],
      "name": "totalSupply",
      "outputs": [
        {
          "internalType": "uint256",
          "name": "",
          "type": "uint256"
        }
      ],
      "stateMutability": "view",
      "type": "function"
    },
    {
      "inputs": [
        {
          "internalType": "address",
          "name": "from",
          "type": "address"
        },
        {
          "internalType": "address",
          "name": "to",
          "type": "address"
        },
        {
          "internalType": "uint256",
          "name": "tokenId",
          "type": "uint256"
        }
      ],
      "name": "transferFrom",
      "outputs": [],
      "stateMutability": "nonpayable",
      "type": "function"
    },
    {
      "inputs": [
        {
          "internalType": "address",
          "name": "newOwner",
          "type": "address"
        }
      ],
      "name": "transferOwnership",
      "outputs": [],
      "stateMutability": "nonpayable",
      "type": "function"
    },
    {
      "inputs": [
        {
          "internalType": "address",
          "name": "newghoulsMultiSig",
          "type": "address"
        },
        {
          "internalType": "uint96",
          "name": "newNumerator",
          "type": "uint96"
        }
      ],
      "name": "updateRoyalties",
      "outputs": [],
      "stateMutability": "nonpayable",
      "type": "function"
    }
  ],
  "bytecode": {
    "object": "0x60a0604052600d80546001600160a01b031916734c9046aa11ed7a7d336ca6c6dcd148181c9304d31790553480156200003757600080fd5b50604051620027e2380380620027e28339810160408190526200005a9162000314565b6040518060400160405280600f81526020016e5448452d4c4f53542d47484f554c5360881b8152506040518061026001604052806102408152602001620025a261024091396000620000ad838262000478565b506001620000bc828262000478565b505050620000d9620000d3620001a360201b60201c565b620001a7565b600e620000e7828262000478565b50600d5462000102906001600160a01b03166102b2620001f9565b46611e14146200011457600062000199565b600d54604051632210724360e11b81526001600160a01b03909116600482015273ecf044c5b4b867cfda001101c617ecd347095b4490634420e486906024016020604051808303816000875af115801562000173573d6000803e3d6000fd5b505050506040513d601f19601f8201168201806040525081019062000199919062000544565b608052506200055e565b3390565b600c80546001600160a01b038381166001600160a01b0319831681179093556040519116919082907f8be0079c531659141344cd1fd0a4f28419497f9722a3daafe3b4186f6b6457e090600090a35050565b6127106001600160601b03821611156200026d5760405162461bcd60e51b815260206004820152602a60248201527f455243323938313a20726f79616c7479206665652077696c6c206578636565646044820152692073616c65507269636560b01b60648201526084015b60405180910390fd5b6001600160a01b038216620002c55760405162461bcd60e51b815260206004820152601960248201527f455243323938313a20696e76616c696420726563656976657200000000000000604482015260640162000264565b604080518082019091526001600160a01b039092168083526001600160601b039091166020909201829052600160a01b90910217600a55565b634e487b7160e01b600052604160045260246000fd5b600060208083850312156200032857600080fd5b82516001600160401b03808211156200034057600080fd5b818501915085601f8301126200035557600080fd5b8151818111156200036a576200036a620002fe565b604051601f8201601f19908116603f01168101908382118183101715620003955762000395620002fe565b816040528281528886848701011115620003ae57600080fd5b600093505b82841015620003d25784840186015181850187015292850192620003b3565b600086848301015280965050505050505092915050565b600181811c90821680620003fe57607f821691505b6020821081036200041f57634e487b7160e01b600052602260045260246000fd5b50919050565b601f8211156200047357600081815260208120601f850160051c810160208610156200044e5750805b601f850160051c820191505b818110156200046f578281556001016200045a565b5050505b505050565b81516001600160401b03811115620004945762000494620002fe565b620004ac81620004a58454620003e9565b8462000425565b602080601f831160018114620004e45760008415620004cb5750858301515b600019600386901b1c1916600185901b1785556200046f565b600085815260208120601f198616915b828110156200051557888601518255948401946001909101908401620004f4565b5085821015620005345787850151600019600388901b60f8161c191681555b5050505050600190811b01905550565b6000602082840312156200055757600080fd5b5051919050565b6080516120286200057a600039600061034f01526120286000f3fe608060405234801561001057600080fd5b50600436106101c45760003560e01c806370a08231116100f9578063a22cb46511610097578063bfe1092811610071578063bfe10928146103cb578063c87b56dd146103de578063e985e9c5146103f1578063f2fde38b1461042d57600080fd5b8063a22cb46514610392578063b22d3b35146103a5578063b88d4fde146103b857600080fd5b80638b7196dc116100d35780638b7196dc1461034a5780638da5cb5b1461037157806395d89b41146103825780639abc83201461038a57600080fd5b806370a082311461031c578063715018a61461032f57806375619ab51461033757600080fd5b806323b872dd1161016657806342842e0e1161014057806342842e0e146102d05780634f6ccce7146102e357806355f804b3146102f65780636352211e1461030957600080fd5b806323b872dd146102785780632a55205a1461028b5780632f745c59146102bd57600080fd5b8063095ea7b3116101a2578063095ea7b3146102315780631129368c1461024657806317bac0521461025957806318160ddd1461027057600080fd5b806301ffc9a7146101c957806306fdde03146101f1578063081812fc14610206575b600080fd5b6101dc6101d736600461194f565b610440565b60405190151581526020015b60405180910390f35b6101f9610486565b6040516101e891906119bc565b6102196102143660046119cf565b610518565b6040516001600160a01b0390911681526020016101e8565b61024461023f366004611a04565b61053f565b005b610244610254366004611a2e565b610659565b6102626101a481565b6040519081526020016101e8565b600854610262565b610244610286366004611a71565b61066f565b61029e610299366004611aad565b6106a0565b604080516001600160a01b0390931683526020830191909152016101e8565b6102626102cb366004611a04565b61074c565b6102446102de366004611a71565b6107e2565b6102626102f13660046119cf565b6107fd565b610244610304366004611b5b565b610890565b6102196103173660046119cf565b6108a4565b61026261032a366004611ba4565b610904565b61024461098a565b610244610345366004611ba4565b61099e565b6102627f000000000000000000000000000000000000000000000000000000000000000081565b600c546001600160a01b0316610219565b6101f96109c8565b6101f96109d7565b6102446103a0366004611bbf565b610a65565b6102446103b3366004611a04565b610a70565b6102446103c6366004611bf0565b610b48565b600f54610219906001600160a01b031681565b6101f96103ec3660046119cf565b610b80565b6101dc6103ff366004611c6c565b6001600160a01b03918216600090815260056020908152604080832093909416825291909152205460ff1690565b61024461043b366004611ba4565b610be7565b60006001600160e01b0319821663780e9d6360e01b148061047157506001600160e01b0319821663152a902d60e11b145b80610480575061048082610c60565b92915050565b60606000805461049590611c9f565b80601f01602080910402602001604051908101604052809291908181526020018280546104c190611c9f565b801561050e5780601f106104e35761010080835404028352916020019161050e565b820191906000526020600020905b8154815290600101906020018083116104f157829003601f168201915b5050505050905090565b600061052382610c85565b506000908152600460205260409020546001600160a01b031690565b600061054a826108a4565b9050806001600160a01b0316836001600160a01b0316036105bc5760405162461bcd60e51b815260206004820152602160248201527f4552433732313a20617070726f76616c20746f2063757272656e74206f776e656044820152603960f91b60648201526084015b60405180910390fd5b336001600160a01b03821614806105d857506105d881336103ff565b61064a5760405162461bcd60e51b815260206004820152603d60248201527f4552433732313a20617070726f76652063616c6c6572206973206e6f7420746f60448201527f6b656e206f776e6572206f7220617070726f76656420666f7220616c6c00000060648201526084016105b3565b6106548383610ce4565b505050565b610661610d52565b61066b8282610dac565b5050565b6106793382610ea9565b6106955760405162461bcd60e51b81526004016105b390611cd9565b610654838383610f28565b6000828152600b602090815260408083208151808301909252546001600160a01b038116808352600160a01b9091046001600160601b0316928201929092528291610715575060408051808201909152600a546001600160a01b0381168252600160a01b90046001600160601b031660208201525b602081015160009061271090610734906001600160601b031687611d3c565b61073e9190611d53565b915196919550909350505050565b600061075783610904565b82106107b95760405162461bcd60e51b815260206004820152602b60248201527f455243373231456e756d657261626c653a206f776e657220696e646578206f7560448201526a74206f6620626f756e647360a81b60648201526084016105b3565b506001600160a01b03919091166000908152600660209081526040808320938352929052205490565b61065483838360405180602001604052806000815250610b48565b600061080860085490565b821061086b5760405162461bcd60e51b815260206004820152602c60248201527f455243373231456e756d657261626c653a20676c6f62616c20696e646578206f60448201526b7574206f6620626f756e647360a01b60648201526084016105b3565b6008828154811061087e5761087e611d75565b90600052602060002001549050919050565b610898610d52565b600e61066b8282611dd9565b6000818152600260205260408120546001600160a01b0316806104805760405162461bcd60e51b8152602060048201526018602482015277115490cdcc8c4e881a5b9d985b1a59081d1bdad95b88125160421b60448201526064016105b3565b60006001600160a01b03821661096e5760405162461bcd60e51b815260206004820152602960248201527f4552433732313a2061646472657373207a65726f206973206e6f7420612076616044820152683634b21037bbb732b960b91b60648201526084016105b3565b506001600160a01b031660009081526003602052604090205490565b610992610d52565b61099c6000611099565b565b6109a6610d52565b600f80546001600160a01b0319166001600160a01b0392909216919091179055565b60606001805461049590611c9f565b600e80546109e490611c9f565b80601f0160208091040260200160405190810160405280929190818152602001828054610a1090611c9f565b8015610a5d5780601f10610a3257610100808354040283529160200191610a5d565b820191906000526020600020905b815481529060010190602001808311610a4057829003601f168201915b505050505081565b61066b3383836110eb565b600f546001600160a01b03163314610ae15760405162461bcd60e51b815260206004820152602e60248201527f5448452d4c4f53542d47484f554c533a2063616c6c6572206973206e6f74207460448201526d3432903234b9ba3934b13aba37b960911b60648201526084016105b3565b6101a48111158015610af257508015155b610b3e5760405162461bcd60e51b815260206004820152601b60248201527f5448452d4c4f53542d47484f554c533a20696e76616c6964204944000000000060448201526064016105b3565b61066b82826111b9565b610b523383610ea9565b610b6e5760405162461bcd60e51b81526004016105b390611cd9565b610b7a84848484611352565b50505050565b6060610b8b82610c85565b6000610b95611385565b90506000815111610bb55760405180602001604052806000815250610be0565b80610bbf84611394565b604051602001610bd0929190611e99565b6040516020818303038152906040525b9392505050565b610bef610d52565b6001600160a01b038116610c545760405162461bcd60e51b815260206004820152602660248201527f4f776e61626c653a206e6577206f776e657220697320746865207a65726f206160448201526564647265737360d01b60648201526084016105b3565b610c5d81611099565b50565b60006001600160e01b0319821663152a902d60e11b1480610480575061048082611427565b6000818152600260205260409020546001600160a01b0316610c5d5760405162461bcd60e51b8152602060048201526018602482015277115490cdcc8c4e881a5b9d985b1a59081d1bdad95b88125160421b60448201526064016105b3565b600081815260046020526040902080546001600160a01b0319166001600160a01b0384169081179091558190610d19826108a4565b6001600160a01b03167f8c5be1e5ebec7d5bd14f71427d1e84f3dd0314c0f7b2291e5b200ac8c7c3b92560405160405180910390a45050565b600c546001600160a01b0316331461099c5760405162461bcd60e51b815260206004820181905260248201527f4f776e61626c653a2063616c6c6572206973206e6f7420746865206f776e657260448201526064016105b3565b6127106001600160601b0382161115610e1a5760405162461bcd60e51b815260206004820152602a60248201527f455243323938313a20726f79616c7479206665652077696c6c206578636565646044820152692073616c65507269636560b01b60648201526084016105b3565b6001600160a01b038216610e705760405162461bcd60e51b815260206004820152601960248201527f455243323938313a20696e76616c69642072656365697665720000000000000060448201526064016105b3565b604080518082019091526001600160a01b039092168083526001600160601b039091166020909201829052600160a01b90910217600a55565b600080610eb5836108a4565b9050806001600160a01b0316846001600160a01b03161480610efc57506001600160a01b0380821660009081526005602090815260408083209388168352929052205460ff165b80610f205750836001600160a01b0316610f1584610518565b6001600160a01b0316145b949350505050565b826001600160a01b0316610f3b826108a4565b6001600160a01b031614610f615760405162461bcd60e51b81526004016105b390611ed8565b6001600160a01b038216610fc35760405162461bcd60e51b8152602060048201526024808201527f4552433732313a207472616e7366657220746f20746865207a65726f206164646044820152637265737360e01b60648201526084016105b3565b610fd0838383600161144c565b826001600160a01b0316610fe3826108a4565b6001600160a01b0316146110095760405162461bcd60e51b81526004016105b390611ed8565b600081815260046020908152604080832080546001600160a01b03199081169091556001600160a01b0387811680865260038552838620805460001901905590871680865283862080546001019055868652600290945282852080549092168417909155905184937fddf252ad1be2c89b69c2b068fc378daa952ba7f163c4a11628f55a4df523b3ef91a4505050565b600c80546001600160a01b038381166001600160a01b0319831681179093556040519116919082907f8be0079c531659141344cd1fd0a4f28419497f9722a3daafe3b4186f6b6457e090600090a35050565b816001600160a01b0316836001600160a01b03160361114c5760405162461bcd60e51b815260206004820152601960248201527f4552433732313a20617070726f766520746f2063616c6c65720000000000000060448201526064016105b3565b6001600160a01b03838116600081815260056020908152604080832094871680845294825291829020805460ff191686151590811790915591519182527f17307eab39ab6107e8899845ad3d59bd9653f200f220920489ca2b5937696c31910160405180910390a3505050565b6001600160a01b03821661120f5760405162461bcd60e51b815260206004820181905260248201527f4552433732313a206d696e7420746f20746865207a65726f206164647265737360448201526064016105b3565b6000818152600260205260409020546001600160a01b0316156112745760405162461bcd60e51b815260206004820152601c60248201527f4552433732313a20746f6b656e20616c7265616479206d696e7465640000000060448201526064016105b3565b61128260008383600161144c565b6000818152600260205260409020546001600160a01b0316156112e75760405162461bcd60e51b815260206004820152601c60248201527f4552433732313a20746f6b656e20616c7265616479206d696e7465640000000060448201526064016105b3565b6001600160a01b038216600081815260036020908152604080832080546001019055848352600290915280822080546001600160a01b0319168417905551839291907fddf252ad1be2c89b69c2b068fc378daa952ba7f163c4a11628f55a4df523b3ef908290a45050565b61135d848484610f28565b61136984848484611580565b610b7a5760405162461bcd60e51b81526004016105b390611f1d565b6060600e805461049590611c9f565b606060006113a183611681565b600101905060008167ffffffffffffffff8111156113c1576113c1611acf565b6040519080825280601f01601f1916602001820160405280156113eb576020820181803683370190505b5090508181016020015b600019016f181899199a1a9b1b9c1cb0b131b232b360811b600a86061a8153600a85049450846113f557509392505050565b60006001600160e01b0319821663780e9d6360e01b1480610480575061048082611759565b60018111156114bb5760405162461bcd60e51b815260206004820152603560248201527f455243373231456e756d657261626c653a20636f6e7365637574697665207472604482015274185b9cd9995c9cc81b9bdd081cdd5c1c1bdc9d1959605a1b60648201526084016105b3565b816001600160a01b0385166115175761151281600880546000838152600960205260408120829055600182018355919091527ff3f7a9fe364faab93b216da50a3214154f22a0a2b415b23a84c8169e8b636ee30155565b61153a565b836001600160a01b0316856001600160a01b03161461153a5761153a85826117a9565b6001600160a01b0384166115565761155181611846565b611579565b846001600160a01b0316846001600160a01b0316146115795761157984826118f5565b5050505050565b60006001600160a01b0384163b1561167657604051630a85bd0160e11b81526001600160a01b0385169063150b7a02906115c4903390899088908890600401611f6f565b6020604051808303816000875af19250505080156115ff575060408051601f3d908101601f191682019092526115fc91810190611fac565b60015b61165c573d80801561162d576040519150601f19603f3d011682016040523d82523d6000602084013e611632565b606091505b5080516000036116545760405162461bcd60e51b81526004016105b390611f1d565b805181602001fd5b6001600160e01b031916630a85bd0160e11b149050610f20565b506001949350505050565b60008072184f03e93ff9f4daa797ed6e38ed64bf6a1f0160401b83106116c05772184f03e93ff9f4daa797ed6e38ed64bf6a1f0160401b830492506040015b6d04ee2d6d415b85acef810000000083106116ec576d04ee2d6d415b85acef8100000000830492506020015b662386f26fc10000831061170a57662386f26fc10000830492506010015b6305f5e1008310611722576305f5e100830492506008015b612710831061173657612710830492506004015b60648310611748576064830492506002015b600a83106104805760010192915050565b60006001600160e01b031982166380ac58cd60e01b148061178a57506001600160e01b03198216635b5e139f60e01b145b8061048057506301ffc9a760e01b6001600160e01b0319831614610480565b600060016117b684610904565b6117c09190611fc9565b600083815260076020526040902054909150808214611813576001600160a01b03841660009081526006602090815260408083208584528252808320548484528184208190558352600790915290208190555b5060009182526007602090815260408084208490556001600160a01b039094168352600681528383209183525290812055565b60085460009061185890600190611fc9565b6000838152600960205260408120546008805493945090928490811061188057611880611d75565b9060005260206000200154905080600883815481106118a1576118a1611d75565b60009182526020808320909101929092558281526009909152604080822084905585825281205560088054806118d9576118d9611fdc565b6001900381819060005260206000200160009055905550505050565b600061190083610904565b6001600160a01b039093166000908152600660209081526040808320868452825280832085905593825260079052919091209190915550565b6001600160e01b031981168114610c5d57600080fd5b60006020828403121561196157600080fd5b8135610be081611939565b60005b8381101561198757818101518382015260200161196f565b50506000910152565b600081518084526119a881602086016020860161196c565b601f01601f19169290920160200192915050565b602081526000610be06020830184611990565b6000602082840312156119e157600080fd5b5035919050565b80356001600160a01b03811681146119ff57600080fd5b919050565b60008060408385031215611a1757600080fd5b611a20836119e8565b946020939093013593505050565b60008060408385031215611a4157600080fd5b611a4a836119e8565b915060208301356001600160601b0381168114611a6657600080fd5b809150509250929050565b600080600060608486031215611a8657600080fd5b611a8f846119e8565b9250611a9d602085016119e8565b9150604084013590509250925092565b60008060408385031215611ac057600080fd5b50508035926020909101359150565b634e487b7160e01b600052604160045260246000fd5b600067ffffffffffffffff80841115611b0057611b00611acf565b604051601f8501601f19908116603f01168101908282118183101715611b2857611b28611acf565b81604052809350858152868686011115611b4157600080fd5b858560208301376000602087830101525050509392505050565b600060208284031215611b6d57600080fd5b813567ffffffffffffffff811115611b8457600080fd5b8201601f81018413611b9557600080fd5b610f2084823560208401611ae5565b600060208284031215611bb657600080fd5b610be0826119e8565b60008060408385031215611bd257600080fd5b611bdb836119e8565b915060208301358015158114611a6657600080fd5b60008060008060808587031215611c0657600080fd5b611c0f856119e8565b9350611c1d602086016119e8565b925060408501359150606085013567ffffffffffffffff811115611c4057600080fd5b8501601f81018713611c5157600080fd5b611c6087823560208401611ae5565b91505092959194509250565b60008060408385031215611c7f57600080fd5b611c88836119e8565b9150611c96602084016119e8565b90509250929050565b600181811c90821680611cb357607f821691505b602082108103611cd357634e487b7160e01b600052602260045260246000fd5b50919050565b6020808252602d908201527f4552433732313a2063616c6c6572206973206e6f7420746f6b656e206f776e6560408201526c1c881bdc88185c1c1c9bdd9959609a1b606082015260800190565b634e487b7160e01b600052601160045260246000fd5b808202811582820484141761048057610480611d26565b600082611d7057634e487b7160e01b600052601260045260246000fd5b500490565b634e487b7160e01b600052603260045260246000fd5b601f82111561065457600081815260208120601f850160051c81016020861015611db25750805b601f850160051c820191505b81811015611dd157828155600101611dbe565b505050505050565b815167ffffffffffffffff811115611df357611df3611acf565b611e0781611e018454611c9f565b84611d8b565b602080601f831160018114611e3c5760008415611e245750858301515b600019600386901b1c1916600185901b178555611dd1565b600085815260208120601f198616915b82811015611e6b57888601518255948401946001909101908401611e4c565b5085821015611e895787850151600019600388901b60f8161c191681555b5050505050600190811b01905550565b60008351611eab81846020880161196c565b835190830190611ebf81836020880161196c565b64173539b7b760d91b9101908152600501949350505050565b60208082526025908201527f4552433732313a207472616e736665722066726f6d20696e636f72726563742060408201526437bbb732b960d91b606082015260800190565b60208082526032908201527f4552433732313a207472616e7366657220746f206e6f6e20455243373231526560408201527131b2b4bb32b91034b6b83632b6b2b73a32b960711b606082015260800190565b6001600160a01b0385811682528416602082015260408101839052608060608201819052600090611fa290830184611990565b9695505050505050565b600060208284031215611fbe57600080fd5b8151610be081611939565b8181038181111561048057610480611d26565b634e487b7160e01b600052603160045260246000fdfea2646970667358221220890f1216e5535f2468f93e84ae7c84a710b3f34d0f16ae4be017eb7328613b7264736f6c6343000811003347ccb4cc91cc80cd97cc94cd92cd86cda0ccbecc85cd82cc84ccbfcc80cd91cd84cc94cd83ccbdcd90cd8acc90cc95cc83cc89cc90cd97cc8fcc8fcc9acd9dcc91cd98cc92cd9dcc8ccc80cd8ccc91cd84cd83cd9dcc86cd81cd82cda0cc89cc95cc80cd80cc90cd97cd9bcd90cc98ccbacd94ccbacc98cca2cc99ccbbcca2cca1cc9fcd87cd94cd96ccb9cca0cd94cc9fcc97cd8dcca3cca8ccb1ccbaccb1ccadcca6cd95cc9cccb2ccb0cd85cd94cca2cd8ecc9fccb3cc99cca9cca4ccbbccb9cc9eccaecc9fcd88ccacccafccbaccaacd8dcd93cca8ccaccc97ccbbcd9acd8e48ccb8ccbfcd90cd8acc94cc8dcd81ccadcca3cd89cca7cd8eccaccd8eccbcccaacd8dccaacc9cccbacd85cc9c4cccb8cd9bcc91cc89cd80cc94cc8fcd80cc87cd86cd8ccc92cd84cc93cd9dcd92cc81cd84cc88cd84cd90cd8ccd91cd82cc94cc85ccbdcd91cd92cc9acc9bcc80cc9fcc98cca7cd99cd88cd99cc99ccbacca0cd8dccaeccabccaccc97ccb1ccb3ccacccb1ccaccd9ccc98ccaacc98cd87cd93cca1cd88cca0ccbacc9eccafcd96cca1cc98ccb1cd89ccaccc9fccaccc97cc9dccb2cd8e53ccb6cd9dcc8ccc83cd97cd90cc84cd86cc88cc81cd90cc81cd86cd9bcc8fcd9dcd9dcc92cc8ccc83cd90cc95cda0cd8ccda0cc95cc85cc8bccbdcc91cc9acc86cd8acd9bcc84cd92cc94cc8bcc88cd86cc9bcda0cd90cc82cd84cd84cc8ccc9acc85cc88cd8accbdcd8acc90ccbecd8bcc86cc93cc94cd82cd86cca9cc97cc96cc96cca3cd93ccadcca3cd95ccaccc9fcca1cd95cd95cc99cc98",
    "linkReferences": {}
  },
  "methodIdentifiers": {
    "CSRID()": "8b7196dc",
    "MAX_ID()": "17bac052",
    "approve(address,uint256)": "095ea7b3",
    "balanceOf(address)": "70a08231",
    "baseUri()": "9abc8320",
    "distributor()": "bfe10928",
    "getApproved(uint256)": "081812fc",
    "isApprovedForAll(address,address)": "e985e9c5",
    "mintFromDistributor(address,uint256)": "b22d3b35",
    "name()": "06fdde03",
    "owner()": "8da5cb5b",
    "ownerOf(uint256)": "6352211e",
    "renounceOwnership()": "715018a6",
    "royaltyInfo(uint256,uint256)": "2a55205a",
    "safeTransferFrom(address,address,uint256)": "42842e0e",
    "safeTransferFrom(address,address,uint256,bytes)": "b88d4fde",
    "setApprovalForAll(address,bool)": "a22cb465",
    "setBaseURI(string)": "55f804b3",
    "setDistributor(address)": "75619ab5",
    "supportsInterface(bytes4)": "01ffc9a7",
    "symbol()": "95d89b41",
    "tokenByIndex(uint256)": "4f6ccce7",
    "tokenOfOwnerByIndex(address,uint256)": "2f745c59",
    "tokenURI(uint256)": "c87b56dd",
    "totalSupply()": "18160ddd",
    "transferFrom(address,address,uint256)": "23b872dd",
    "transferOwnership(address)": "f2fde38b",
    "updateRoyalties(address,uint96)": "1129368c"
  },
  "id": 38
}