{
  "abi": [
    {
      "inputs": [
        {
          "internalType": "address",
          "name": "_hackers",
          "type": "address"
        },
        {
          "internalType": "address",
          "name": "_skulls",
          "type": "address"
        },
        {
          "internalType": "address",
          "name": "_chain_runners",
          "type": "address"
        },
        {
          "internalType": "address",
          "name": "_based_ghouls",
          "type": "address"
        }
      ],
      "stateMutability": "nonpayable",
      "type": "constructor"
    },
    {
      "anonymous": false,
      "inputs": [
        {
          "indexed": true,
          "internalType": "address",
          "name": "previousOwner",
          "type": "address"
        },
        {
          "indexed": true,
          "internalType": "address",
          "name": "newOwner",
          "type": "address"
        }
      ],
      "name": "OwnershipTransferred",
      "type": "event"
    },
    {
      "inputs": [],
      "name": "BASED_GHOULS",
      "outputs": [
        {
          "internalType": "address",
          "name": "",
          "type": "address"
        }
      ],
      "stateMutability": "view",
      "type": "function"
    },
    {
      "inputs": [],
      "name": "CHAIN_RUNNERS",
      "outputs": [
        {
          "internalType": "address",
          "name": "",
          "type": "address"
        }
      ],
      "stateMutability": "view",
      "type": "function"
    },
    {
      "inputs": [],
      "name": "DISCOUNT_MINT_COST",
      "outputs": [
        {
          "internalType": "uint256",
          "name": "",
          "type": "uint256"
        }
      ],
      "stateMutability": "view",
      "type": "function"
    },
    {
      "inputs": [],
      "name": "FEE_RECEIVER",
      "outputs": [
        {
          "internalType": "address",
          "name": "",
          "type": "address"
        }
      ],
      "stateMutability": "view",
      "type": "function"
    },
    {
      "inputs": [],
      "name": "MAX_MINT",
      "outputs": [
        {
          "internalType": "uint256",
          "name": "",
          "type": "uint256"
        }
      ],
      "stateMutability": "view",
      "type": "function"
    },
    {
      "inputs": [],
      "name": "MINT_COST",
      "outputs": [
        {
          "internalType": "uint256",
          "name": "",
          "type": "uint256"
        }
      ],
      "stateMutability": "view",
      "type": "function"
    },
    {
      "inputs": [],
      "name": "SKULLS",
      "outputs": [
        {
          "internalType": "address",
          "name": "",
          "type": "address"
        }
      ],
      "stateMutability": "view",
      "type": "function"
    },
    {
      "inputs": [
        {
          "internalType": "address",
          "name": "collection",
          "type": "address"
        },
        {
          "internalType": "uint256",
          "name": "id",
          "type": "uint256"
        }
      ],
      "name": "discountedMint",
      "outputs": [],
      "stateMutability": "payable",
      "type": "function"
    },
    {
      "inputs": [
        {
          "internalType": "uint256",
          "name": "",
          "type": "uint256"
        }
      ],
      "name": "discountedMints",
      "outputs": [
        {
          "internalType": "bool",
          "name": "skulls",
          "type": "bool"
        },
        {
          "internalType": "bool",
          "name": "chainRunners",
          "type": "bool"
        },
        {
          "internalType": "bool",
          "name": "basedGhouls",
          "type": "bool"
        }
      ],
      "stateMutability": "view",
      "type": "function"
    },
    {
      "inputs": [],
      "name": "emergencyWithdraw",
      "outputs": [],
      "stateMutability": "nonpayable",
      "type": "function"
    },
    {
      "inputs": [],
      "name": "hackers",
      "outputs": [
        {
          "internalType": "contract H4CK3R5",
          "name": "",
          "type": "address"
        }
      ],
      "stateMutability": "view",
      "type": "function"
    },
    {
      "inputs": [
        {
          "internalType": "uint256",
          "name": "",
          "type": "uint256"
        }
      ],
      "name": "ids",
      "outputs": [
        {
          "internalType": "uint16",
          "name": "",
          "type": "uint16"
        }
      ],
      "stateMutability": "view",
      "type": "function"
    },
    {
      "inputs": [
        {
          "internalType": "address",
          "name": "",
          "type": "address"
        }
      ],
      "name": "mintedByAddress",
      "outputs": [
        {
          "internalType": "uint8",
          "name": "",
          "type": "uint8"
        }
      ],
      "stateMutability": "view",
      "type": "function"
    },
    {
      "inputs": [],
      "name": "owner",
      "outputs": [
        {
          "internalType": "address",
          "name": "",
          "type": "address"
        }
      ],
      "stateMutability": "view",
      "type": "function"
    },
    {
      "inputs": [
        {
          "internalType": "uint8",
          "name": "amt",
          "type": "uint8"
        }
      ],
      "name": "publicMint",
      "outputs": [],
      "stateMutability": "payable",
      "type": "function"
    },
    {
      "inputs": [],
      "name": "renounceOwnership",
      "outputs": [],
      "stateMutability": "nonpayable",
      "type": "function"
    },
    {
      "inputs": [
        {
          "internalType": "address",
          "name": "newOwner",
          "type": "address"
        }
      ],
      "name": "transferOwnership",
      "outputs": [],
      "stateMutability": "nonpayable",
      "type": "function"
    },
    {
      "inputs": [
        {
          "internalType": "uint256",
          "name": "amt",
          "type": "uint256"
        }
      ],
      "name": "withdraw",
      "outputs": [],
      "stateMutability": "nonpayable",
      "type": "function"
    },
    {
      "inputs": [],
      "name": "withdraw",
      "outputs": [],
      "stateMutability": "nonpayable",
      "type": "function"
    }
  ],
  "bytecode": {
    "object": "0x6101006040523480156200001257600080fd5b506040516200139d3803806200139d8339810160408190526200003591620000d0565b620000403362000063565b6001600160a01b0393841660e052918316608052821660a0521660c0526200012d565b600080546001600160a01b038381166001600160a01b0319831681178455604051919092169283917f8be0079c531659141344cd1fd0a4f28419497f9722a3daafe3b4186f6b6457e09190a35050565b80516001600160a01b0381168114620000cb57600080fd5b919050565b60008060008060808587031215620000e757600080fd5b620000f285620000b3565b93506200010260208601620000b3565b92506200011260408601620000b3565b91506200012260608601620000b3565b905092959194509250565b60805160a05160c05160e0516111fe6200019f6000396000818161029f015281816108590152610abe01526000818161033d015281816104f4015261071f015260008181610309015281816104b801526106be0152600081816103c90152818161047d015261065f01526111fe6000f3fe6080604052600436106101445760003560e01c80638da5cb5b116100c0578063db2e21bc11610074578063f0292a0311610059578063f0292a03146103eb578063f2fde38b14610401578063fac333ac1461042157600080fd5b8063db2e21bc146103a2578063e09fd687146103b757600080fd5b8063c0a38e2f116100a5578063c0a38e2f1461032b578063c662e4811461035f578063d3e78e4d1461037a57600080fd5b80638da5cb5b146102d9578063aef75782146102f757600080fd5b80633ccfd60b11610117578063715018a6116100fc578063715018a614610265578063858e83b51461027a57806388db44bb1461028d57600080fd5b80633ccfd60b1461023d578063559dd1011461025257600080fd5b80630b0199d5146101495780632e1a7d4d14610177578063354ca9e3146101995780633ca63f2c146101fb575b600080fd5b34801561015557600080fd5b5061016466b1a2bc2ec5000081565b6040519081526020015b60405180910390f35b34801561018357600080fd5b5061019761019236600461101a565b610454565b005b3480156101a557600080fd5b506101dc6101b436600461101a565b60016020526000908152604090205460ff808216916101008104821691620100009091041683565b604080519315158452911515602084015215159082015260600161016e565b34801561020757600080fd5b5061022b610216366004611048565b60026020526000908152604090205460ff1681565b60405160ff909116815260200161016e565b34801561024957600080fd5b50610197610468565b61019761026036600461106c565b61047b565b34801561027157600080fd5b5061019761091f565b610197610288366004611098565b610931565b34801561029957600080fd5b506102c17f000000000000000000000000000000000000000000000000000000000000000081565b6040516001600160a01b03909116815260200161016e565b3480156102e557600080fd5b506000546001600160a01b03166102c1565b34801561030357600080fd5b506102c17f000000000000000000000000000000000000000000000000000000000000000081565b34801561033757600080fd5b506102c17f000000000000000000000000000000000000000000000000000000000000000081565b34801561036b57600080fd5b5061016466f523226980800081565b34801561038657600080fd5b506102c173fb34fc2a64bb863015145370554b5fba5efc5dc881565b3480156103ae57600080fd5b50610197610b7c565b3480156103c357600080fd5b506102c17f000000000000000000000000000000000000000000000000000000000000000081565b3480156103f757600080fd5b506101646105e381565b34801561040d57600080fd5b5061019761041c366004611048565b610bbe565b34801561042d57600080fd5b5061044161043c36600461101a565b610c4b565b60405161ffff909116815260200161016e565b61045c610c7a565b61046581610cd4565b50565b610470610c7a565b61047947610cd4565b565b7f00000000000000000000000000000000000000000000000000000000000000006001600160a01b0316826001600160a01b031614806104ec57507f00000000000000000000000000000000000000000000000000000000000000006001600160a01b0316826001600160a01b0316145b8061052857507f00000000000000000000000000000000000000000000000000000000000000006001600160a01b0316826001600160a01b0316145b6105795760405162461bcd60e51b815260206004820152601260248201527f496e76616c696420636f6c6c656374696f6e000000000000000000000000000060448201526064015b60405180910390fd5b6040517f6352211e000000000000000000000000000000000000000000000000000000008152600481018290526001600160a01b03831690636352211e90602401602060405180830381865afa1580156105d7573d6000803e3d6000fd5b505050506040513d601f19601f820116820180604052508101906105fb91906110bb565b6001600160a01b0316336001600160a01b03161461065b5760405162461bcd60e51b815260206004820152601660248201527f43616c6c6572206e6f74206f776e6572206f66204964000000000000000000006044820152606401610570565b60007f00000000000000000000000000000000000000000000000000000000000000006001600160a01b0316836001600160a01b0316036106bc57506000818152600160208190526040909120805460ff198116909217905560ff1661077c565b7f00000000000000000000000000000000000000000000000000000000000000006001600160a01b0316836001600160a01b03160361071d57506000818152600160205260409020805461010061ff0019821681179092550460ff1661077c565b7f00000000000000000000000000000000000000000000000000000000000000006001600160a01b0316836001600160a01b03160361077c5750600081815260016020526040902080546201000062ff000019821681179092550460ff165b80156107ca5760405162461bcd60e51b815260206004820152600f60248201527f416c726561647920636c61696d656400000000000000000000000000000000006044820152606401610570565b66b1a2bc2ec5000034146108205760405162461bcd60e51b815260206004820152601460248201527f496e73756666696369656e74207061796d656e740000000000000000000000006044820152606401610570565b336000908152600260205260408120805460ff169161083e836110ee565b91906101000a81548160ff021916908360ff160217905550507f00000000000000000000000000000000000000000000000000000000000000006001600160a01b031663b22d3b35336108a485336001600160a01b031661089f919061110d565b610d47565b6040517fffffffff0000000000000000000000000000000000000000000000000000000060e085901b1681526001600160a01b0390921660048301526024820152604401600060405180830381600087803b15801561090257600080fd5b505af1158015610916573d6000803e3d6000fd5b50505050505050565b610927610c7a565b6104796000610fb2565b6000546001600160a01b03163314610aa657600a8160ff1611156109975760405162461bcd60e51b815260206004820152600c60248201527f4d6178203130206d696e747300000000000000000000000000000000000000006044820152606401610570565b33600090815260026020526040902054600a906109b890839060ff1661112a565b60ff161115610a095760405162461bcd60e51b815260206004820152601260248201527f4d617820313020706572206164647265737300000000000000000000000000006044820152606401610570565b610a1d66f523226980800060ff831661110d565b3414610a6b5760405162461bcd60e51b815260206004820152601460248201527f496e73756666696369656e74207061796d656e740000000000000000000000006044820152606401610570565b3360009081526002602052604081208054839290610a8d90849060ff1661112a565b92506101000a81548160ff021916908360ff1602179055505b60005b8160ff16811015610b78576001600160a01b037f00000000000000000000000000000000000000000000000000000000000000001663b22d3b3533610af161089f858361110d565b6040517fffffffff0000000000000000000000000000000000000000000000000000000060e085901b1681526001600160a01b0390921660048301526024820152604401600060405180830381600087803b158015610b4f57600080fd5b505af1158015610b63573d6000803e3d6000fd5b5050505080610b7190611143565b9050610aa9565b5050565b610b84610c7a565b600080546040516001600160a01b03909116914780156108fc02929091818181858888f19350505050158015610465573d6000803e3d6000fd5b610bc6610c7a565b6001600160a01b038116610c425760405162461bcd60e51b815260206004820152602660248201527f4f776e61626c653a206e6577206f776e657220697320746865207a65726f206160448201527f64647265737300000000000000000000000000000000000000000000000000006064820152608401610570565b61046581610fb2565b6003816105e38110610c5c57600080fd5b60109182820401919006600202915054906101000a900461ffff1681565b6000546001600160a01b031633146104795760405162461bcd60e51b815260206004820181905260248201527f4f776e61626c653a2063616c6c6572206973206e6f7420746865206f776e65726044820152606401610570565b600073fb34fc2a64bb863015145370554b5fba5efc5dc88180808086855af1915081610d425760405162461bcd60e51b815260206004820152601360248201527f4554485f5452414e534645525f4641494c4544000000000000000000000000006044820152606401610570565b505050565b60628054600091829161ffff169082610d5f8361115c565b91906101000a81548161ffff021916908361ffff16021790555061ffff166105e3610d8a919061117d565b905060008111610ddc5760405162461bcd60e51b815260206004820152600b60248201527f4d696e7420636c6f7365640000000000000000000000000000000000000000006044820152606401610570565b6000818442604051602001610dfb929190918252602082015260400190565b6040516020818303038152906040528051906020012060001c610e1e9190611190565b90506003816105e38110610e3457610e346111b2565b601091828204019190066002029054906101000a900461ffff1661ffff16600003610e5f5780610e92565b6003816105e38110610e7357610e736111b2565b601091828204019190066002029054906101000a900461ffff1661ffff165b92506003610ea160018461117d565b6105e38110610eb257610eb26111b2565b601081049190910154600f9091166002026101000a900461ffff1615610f13576003610edf60018461117d565b6105e38110610ef057610ef06111b2565b601091828204019190066002029054906101000a900461ffff1661ffff16610f1e565b610f1e60018361117d565b6003826105e38110610f3257610f326111b2565b601091828204019190066002026101000a81548161ffff021916908361ffff16021790555060006003600184610f68919061117d565b6105e38110610f7957610f796111b2565b601091828204019190066002026101000a81548161ffff021916908361ffff1602179055508280610fa990611143565b95945050505050565b600080546001600160a01b038381167fffffffffffffffffffffffff0000000000000000000000000000000000000000831681178455604051919092169283917f8be0079c531659141344cd1fd0a4f28419497f9722a3daafe3b4186f6b6457e09190a35050565b60006020828403121561102c57600080fd5b5035919050565b6001600160a01b038116811461046557600080fd5b60006020828403121561105a57600080fd5b813561106581611033565b9392505050565b6000806040838503121561107f57600080fd5b823561108a81611033565b946020939093013593505050565b6000602082840312156110aa57600080fd5b813560ff8116811461106557600080fd5b6000602082840312156110cd57600080fd5b815161106581611033565b634e487b7160e01b600052601160045260246000fd5b600060ff821660ff8103611104576111046110d8565b60010192915050565b8082028115828204841417611124576111246110d8565b92915050565b60ff8181168382160190811115611124576111246110d8565b600060018201611155576111556110d8565b5060010190565b600061ffff808316818103611173576111736110d8565b6001019392505050565b81810381811115611124576111246110d8565b6000826111ad57634e487b7160e01b600052601260045260246000fd5b500690565b634e487b7160e01b600052603260045260246000fdfea264697066735822122059607b22f345de6a2661bce7c109bca49edec7782aa1a94ffd41c04535087b1b64736f6c63430008110033",
    "linkReferences": {}
  },
  "methodIdentifiers": {
    "BASED_GHOULS()": "c0a38e2f",
    "CHAIN_RUNNERS()": "aef75782",
    "DISCOUNT_MINT_COST()": "0b0199d5",
    "FEE_RECEIVER()": "d3e78e4d",
    "MAX_MINT()": "f0292a03",
    "MINT_COST()": "c662e481",
    "SKULLS()": "e09fd687",
    "discountedMint(address,uint256)": "559dd101",
    "discountedMints(uint256)": "354ca9e3",
    "emergencyWithdraw()": "db2e21bc",
    "hackers()": "88db44bb",
    "ids(uint256)": "fac333ac",
    "mintedByAddress(address)": "3ca63f2c",
    "owner()": "8da5cb5b",
    "publicMint(uint8)": "858e83b5",
    "renounceOwnership()": "715018a6",
    "transferOwnership(address)": "f2fde38b",
    "withdraw()": "3ccfd60b",
    "withdraw(uint256)": "2e1a7d4d"
  },
  "id": 34
}